:020000040800F2
:10000000980200207D250008992500089D250008FC
:10001000A1250008A5250008A9250008000000006A
:10002000000000000000000000000000AD250008F6
:10003000B125000800000000B52500088314000861
:10004000BD250008C1250008C5250008C9250008F0
:10005000CD250008D1250008D5250008D9250008A0
:10006000DD250008E1250008E5250008E925000850
:10007000ED250008F1250008F5250008F925000800
:10008000FD250008012600080526000800000000E4
:100090000000000000000000000000000926000829
:1000A0000D2600081126000815260008192600084C
:1000B0001D260008212600082526000829260008FC
:1000C0002D260008312600083526000839260008AC
:1000D0003D26000891200008452600084926000812
:1000E0004D26000851260008552600080000000093
:1000F0000000000000000000000000000000000000
:1001000000000000000000000000000000000000EF
:100110000000000000000000592600085D260008CD
:1001200038B50446052000F001FB08B100F010FBD3
:10013000DFF81C556860132000F0F8FA08B100F0F1
:10014000DBFB20600C2000F0F1FA08B100F0C6FCE7
:1001500060604FF4886000F0E9FA10B1002100F00F
:1001600019FDA0604FF4886000F0E0FA10B10121A1
:1001700000F010FDE060092000F0D8FA08B100F0AE
:10018000FBFF2860042020746074686800F07CFB2A
:100190000146204600F0B0F9204600F027F9002083
:1001A000E074207584F8F600204632BDF8B50446A8
:1001B000A06800F007FD08B10120E074E06800F0DD
:1001C00001FD08B101202075E07C00281CBF207DC6
:1001D000002800F0C280A07CC10709D5A168D1F831
:1001E00014140914E182E168D1F81414091421836C
:1001F00081070BD5A16801F2144189690914618353
:10020000E16801F2144189690914A18341070BD502
:10021000A16801F21441896809146184E16801F25E
:10022000144189680914A18401070BD5A16801F262
:100230001441096A0914E183E16801F21441096A71
:1002400009142184C00616D5A06800F21440016983
:100250000914E182E16801F214410A69121422834F
:10026000806A00146083886A0014A0830020608480
:10027000A084E0832084322084F8260084F82700BC
:1002800084F8280084F8290084F82A0084F82B00D8
:1002900000252646B6F99070E08AB842ACBF01222C
:1002A00000222068294600F043FB208BB842ACBFF7
:1002B000012200222068294600F050FB608BB842E2
:1002C000A8BF84F82650A08BB842A8BF84F8275056
:1002D000E08BB842A8BF84F82850208CB842A8BF51
:1002E00084F82950608CB842A8BF84F82A50A08CAA
:1002F000B842A8BF84F82B506D1CB61C322DC9DB48
:1003000094F826102068012200F012FB94F82710C0
:100310002068012200F022FB94F8281020680122B6
:1003200000F006FB94F829102068012200F016FB6B
:1003300094F82A102068012200F0FAFA94F82B10A1
:100340002068012200F00AFB206800F0EEFA00208D
:10035000E0742075012084F8F600BE48007818B1DA
:100360002046BDE8F24000E0F1BD38B504466068C3
:1003700000F0D8FB01281BD1A07C657CC00602D50B
:100380000420607404E06D1CEDB2042D08BF00254C
:100390002946204600F0B0F8AD4C606800F074FAD1
:1003A000854222D060682946BDE8344000F083BA17
:1003B000022810D1A07C40F01001204600F0B4F8D3
:1003C000B4F8F40040F48071A4F8F4102068BDE89B
:1003D000344000F0FABA822807D1A06800F015FD79
:1003E000E068BDE8324000F010BD31BD38B50446CC
:1003F0003221206800F0C8FA2068322100F0D5FAD6
:10040000206800F092FA206840F2FF7100F0DDFAF7
:10041000206800F08AFA4FF4967001F03FF82068E7
:100420004FF4806100F0D1FA206800F07EFA3225A6
:100430002068294600F0A8FA2068294600F0B5FA9D
:10044000206800F072FA142001F028F86D1EEFD138
:10045000B4F8F410206800F0B8FA2068BDE8324023
:1004600000F063BA3229BCBF00EB410082857047BF
:100470002DE9F043B0F98E100FF23C280FF2182549
:100480000FF2F4160FF2D019322242F2107341F635
:10049000417CB0F92C400C1B1FFA84FEE645A8BF36
:1004A0004FF0000E1CDA4FEADE0707F01E070EF0D1
:1004B0000F0439F81440BF5B7C434FEADE1707F0A6
:1004C0001E07240C7F5B7C434FEADE2707F0020700
:1004D000240C37F808707C43240C5C434FEA144E1C
:1004E000A0F890E0801C521ED3D1BDE8F08300EB51
:1004F0004100B0F92C00704710B50446042912DA07
:10050000607C81420FD052486174406800F051F91C
:10051000204600F02AF8A06800F066FCE068BDE81C
:10052000104000F061BC10BD81740021C1820183C4
:100530004183818341848184C1830184704710B5E4
:100540000446A06800F061FCE068BDE8104000F0DF
:100550005CBC10B50446A4F8F410206800F035FA2D
:100560002068BDE8104000F0E0B92DE9F0410446F4
:10057000607C00F0C7FC364D617C286800F0E0FE2E
:100580000FF238180026274638F8022B686806F163
:10059000110189B200F044F9B885761CBF1C322ED7
:1005A000F2DB2046FFF764FF607C0FF27411425CBF
:1005B0006868432100F034F9C1B22046FFF7B4FF68
:1005C000607C0FF2601131F810206868472100F05C
:1005D00027F90146A4F8F410206800F0F6F9206825
:1005E000BDE8F04100F0A1B9F8B5194D04466868BE
:1005F0000021017100F01DFD286800F0C7FE0026F3
:100600002746BA8D686806F1110189B200F011F928
:10061000761CBF1C322EF4DBA27C6868432100F0FC
:1006200008F9B4F8F4206868472100F002F9686816
:1006300000F015F968680079F2BD10B50446044869
:10064000406800F01EF92046BDE810408DE700002C
:100650006400002094000020FFFFB4FF68FF1DFF2E
:10066000D2FE87FE3CFEF1FDA6FD5BFD11FDC6FC42
:100670007CFC31FCE7FB9DFBFFFF53FBBDF63CF22E
:10068000D0ED79E936E507E1EBDCE3D8EED40BD128
:100690003ACD7BC9CEC531C2FFFFA6BEFB8DBD6979
:1006A000BF4EA53AAD2B872039180A126F0D010AEB
:1006B00074078D0522041403FFFF4B0254D960F028
:1006C00054F248F410F5D8F5A0F668F730F8F8F8C9
:1006D000C0F988FA50FB18FC7CFCE0FC44FDA8FD46
:1006E0000CFE3EFE70FEA2FED4FE06FF38FF6AFF3F
:1006F0009CFFB5FFCEFFE7FF0000190032004B0062
:1007000064007D009600AF00C800FA002C015E0175
:100710009001F4015802BC0220038403E803B004F2
:100720000305010BC204A2040204C10410B504466F
:1007300001E000F011FF204600F010FF28B9034847
:1007400000680100F5D08047F5E710BD8C0000205F
:1007500010B5044600F05BFF002020710021204608
:1007600000F027F8204610BD38B5044601EBC10063
:1007700002EBC00080B241008009217000F00E0041
:100780006070192000F091FE00F078FF607840F072
:10079000A00000F07BFF050007D100F08BFE0028D1
:1007A000F2D000F0D6FF284632BD207800F06EFF70
:1007B000F9E710B5044604290ADAE170002100F0D7
:1007C00008F84BF6D56188420CBF01200020A070CC
:1007D00010BD10B504460A46E178FFF7C5FF88B1A1
:1007E00000F0B7FF00F04AFF607840F0A10000F091
:1007F0004DFF012000F07EFF0446002000F07AFF4C
:1008000044EA002010BD10B514460A46C178FFF72F
:10081000ABFF20B1E0B200F039FF200A55E010BD77
:10082000034610469A78002A1CBF1846FFF7D1BF2E
:10083000704770B504460D461646FFF7CAFFB04232
:1008400004D0324629462046FFF7DDFF29462046E0
:10085000FFF7BFFFB0421CBF0120207170BD38B54B
:100860004BF6D56504462A460021FFF7E2FF00213A
:100870002046FFF7AEFFA8420CBF01200020A07069
:1008800031BD00218170704710B50446002204215B
:10089000FFF76AFF70B100F05CFF00F0EFFE6078D8
:1008A00040F0A10000F0F2FE002000F023FF042839
:1008B000A8BF002010BD10B50C4600220421FFF790
:1008C00053FF08B1204600E010BD00F0DFFEBDE898
:1008D000104000F03EBF50F8041B61B150F8042BEB
:1008E000D30744BFA9F101039A18002342F8043B3F
:1008F000091FFAD1EFE7704710B504460E2100F04A
:1009000055FF20460E21FF224271401C491EFBD19B
:10091000204600F05AF8611D204600F076FF0121C4
:10092000204600F08DFF204610BD411D00F06DBF38
:10093000322912DA0FF2C40313F811C003EB41019C
:100940006044497843794FF0010C0CFA01F1002A18
:1009500014BF23EA0101194341717047322912DAA9
:100960000FF2FC0313F811C003EB41016044497816
:1009700043794FF0010C0CFA01F1002A14BF23EA6D
:10098000010119434171704770B504460D460026B8
:10099000B5429241D243D20F31462046FFF7C8FFFD
:1009A000761CF6B2322EF3DB70BD70B504460D46F0
:1009B0000026B542ACBF01220022F1B22046FFF76B
:1009C000CDFF761C322EF4DB70BDF0B481F4806173
:1009D0000FF2F0020B23147855782418012766795A
:1009E00007FA05F5CF074CBF26EA05053543490848
:1009F000921C65715B1EEED1F0BC704700020001D5
:100A000001000103010201010200020302020201CE
:100A100003000303030203010400040304020401AE
:100A2000050005030502050106000603060206018E
:100A3000070007030702070108000803080208016E
:100A400009000903090209010A000A030A020A014E
:100A50000B000B030B020B010C000C030C020C012E
:100A60000007000601040105010701060204020552
:100A70000207020603040305030703060404040532
:100A80000407040605040505050705060604060512
:100A900006070606070407050707070608040805F2
:100AA0000807080609040905090709060A040A05D2
:100AB0000A070A060B040B050B070B060C040C05B2
:100AC0000C070C060005000400030D030D040D05C2
:100AD0000D060D070D020D010D00000010B50446B6
:100AE0002A484FF40041C16001680901090941F039
:100AF000004101604FF48041C160016821F07061E4
:100B000041F0006101600020207260720C20FFF74C
:100B10000DFE10B1002100F0D7FC60600121817250
:100B2000204610BD70B5044619480168002500260E
:100B3000090458BF01260068400458BF46F0020669
:100B4000607A864206D06068322100F0CAFC2572C5
:100B5000667219E0C6B1207A60B9606800F0C7FC1F
:100B600090B101202072354660684FF4FA6100F0C0
:100B7000B8FC09E0012807D1606800F0B8FC18B1A2
:100B800002202072A6F18005E8B270BD0410014079
:100B90000810014038B504460D460120FFF7C6FD98
:100BA00018B1221D294600F05FFE20600020C4F825
:100BB0000404A4F80804A4F80A04204600F014F978
:100BC000204632BDF8B50446206800F0D3FE002868
:100BD00000F1088104EB4000011D4FF480724FF6D4
:100BE000E973B4F80454B4F90A6431F9020B03FB55
:100BF0000655C4F80454B4F80864861B06EB254572
:100C0000A4F80A54A4F808042DB2002D48BF6D4280
:100C1000A4F80C54B4F90C64D4F81054DFF8C004F0
:100C2000A6EB25473FB2012F05DBD0F828C00CFB0F
:100C30000755C4F81054D4F82854A6EB254636B20C
:100C4000012E04DB076C07FB0655C4F82854521E1E
:100C5000C7D1D4F81034016B1D14ADB201FB05F2FD
:100C6000DFF880148A42A8BFDFF87C2412014FEA23
:100C7000224CD4F81424ACEB224636B2002E07D412
:100C8000476B07FB0622C4F814240022A4F818249A
:100C90004EF22842D4F8146402FB0CFC37144FEADD
:100CA0002C4C1FFA8CFCBFB2BC4505D2D0F82CC02E
:100CB0000CFB1533C4F81034B4F818344589AB4232
:100CC00003D25B1CA4F8183404E0836B03FB1763A6
:100CD000C4F81434D4F81434058AC5B1D4F81C54BB
:100CE0009D4204DAC4F81C340025A4F82054B4F85A
:100CF0002054068AB54203D26D1CA4F8205408E0A3
:100D0000D4F81C54C76B2E14B6B207FB1655C4F8A2
:100D10001C54D4F824549D42B8BF1D46C4F8245432
:100D2000D4F82834866C1D14ADB26E438E42A8BF31
:100D3000DFF8B4633701D4F82C143F14A7EB214635
:100D400036B2002E08D4D0F84CC00CFB0611C4F803
:100D50002C140021A4F830147A43D4F82C140E1467
:100D6000121492B2B6B2B24204D2426C02FB1532F5
:100D7000C4F82824B4F83024C38B9A4203D2511CFF
:100D8000A4F8301404E0026D02FB1611C4F82C1410
:100D9000D4F82C14828CCAB1D4F834248A4204DAF0
:100DA000C4F834140022A4F83824B4F83824838C0E
:100DB0009A4203D2501CA4F838040AE0D4F8342430
:100DC000406D13149BB200FB132000E00020C4F818
:100DD0003404D4F83C048842B8BF0846C4F83C0444
:100DE0000120F2BD0020F2BD0021C0F8101400F275
:100DF000104041600181C160018241618161C16136
:100E0000018441620185C16270470021C0F8241449
:100E1000C0F83C14704710B4B14802884FF48031D8
:100E2000002A1ABF46F6AA23B3FBF2F20A468262F0
:100E30004288002A1ABFAD4BB3FBF2F20A46C262E7
:100E40008388AB4A53431B0B0363C388002B1ABF31
:100E5000A64CB4FBF3F30B4643630389002B1ABF84
:100E6000A24CB4FBF3F30B468363838903EB430487
:100E700063031B0C4381C389002B1ABF9B4CB4FB3B
:100E8000F3F30B46C363438A03EB430463031B0C76
:100E90000382838A002B1ABF46F6AA24B4FBF3F31D
:100EA0000B460364C38A002B1ABF904CB4FBF3F3C8
:100EB0000B464364038B5A43120B8264428B002A15
:100EC0001ABF8A4BB3FBF2F20A46C264828B002A35
:100ED0001ABF864BB3FBF2F20A460265028C02EBA4
:100EE00042035A03120CC283428C12B17F49B1FBF8
:100EF000F2F14165C18C01EB41025103090C81847F
:100F000010BC704770B506460FF2EC10794D30F802
:100F100016202868724C0121FFF782FC20800221F4
:100F20000FF2DC1030F816202868FFF779FC60809B
:100F300003210FF2D41030F816202868FFF770FC58
:100F4000A08004210FF2C81030F816202868FFF79F
:100F500067FCE08005210FF2C01030F816202868E9
:100F6000FFF75EFC208106210FF2B41030F8162046
:100F70002868FFF755FCA08107210FF2AC1030F86C
:100F800016202868FFF74CFCE08108210FF2A01022
:100F900030F816202868FFF743FC608209210FF221
:100FA000981030F816202868FFF73AFCA0820A2132
:100FB0000FF28C1030F816202868FFF731FCE08221
:100FC0000B210FF2841030F816202868FFF728FC58
:100FD00020830C210FF2781030F816202868FFF7D4
:100FE0001FFC60830D210FF2701030F81620286866
:100FF000FFF716FCA0830E210FF2641030F81620C4
:101000002868FFF70DFC20840F210FF25C1030F8E8
:1010100016202868FFF704FC608410210FF250109E
:1010200030F816202868FFF7FBFBE084BDE870402D
:10103000F1E638B52F4C2A4D20682A880121FFF7A8
:10104000F8FB6A8820680221FFF7F3FBAA88206872
:101050000321FFF7EEFBEA8820680421FFF7E9FB94
:101060002A8920680521FFF7E4FBAA892068062168
:10107000FFF7DFFBEA8920680721FFF7DAFB6A8ABE
:1010800020680821FFF7D5FBAA8A20680921FFF70D
:10109000D0FBEA8A20680A21FFF7CBFB2A8B206865
:1010A0000B21FFF7C6FB6A8B20680C21FFF7C1FB01
:1010B000AA8B20680D21FFF7BCFB2A8C20680E212B
:1010C000FFF7B7FB6A8C20680F21FFF7B2FBEA8CB1
:1010D0002068BDE838401021FFF7ABBB00000000DE
:1010E000000000200180AF020080AF022222060033
:1010F000284001006800002032003200E001E02EAC
:10110000A406A406790DB2024C044C047404B80D74
:101110006400640000000000A406A406790DB20279
:10112000140014000000000000005802000000003D
:101130000000E803000000000000000000000000C4
:10114000000000000000CB011A040000000034047D
:101150006400000000001900580200000000B20204
:10116000E80300000000190000000000000000007B
:10117000000000000000D00710B504460020E07118
:1011800020720021204600F088F8204610BD10B5DE
:101190000446201D00F024FC601D00F037FC2046B2
:1011A00000F066F884484FF40041016101680901CC
:1011B000090941F0005101604FF48041016101686B
:1011C00021F0706141F00071016010BD10B504465E
:1011D000201D00F005FC601D00F018FC204600F00A
:1011E00047F8764C10202060022000F025FC2020DB
:1011F00020600220BDE8104000F028BC10B5044675
:1012000000F036F8201D00F02BFC601D00F03CFCC7
:1012100025E010B504466A48016841F48031016058
:101220000021684801854FF40042FF21818500219B
:10123000818646F6680101831121018401218182A2
:1012400061490A80012101806048016841F0010183
:101250000160092000F02CFC092000F033FCE1794A
:10126000204600F037F8217A2046BDE810404CE0D7
:1012700080B5544800210184002253490A8002802D
:101280004F48016821F480310160002000F010FC1B
:10129000BDE80240002000F015BC38B504460D46FC
:1012A000A079A84215D045B1022D0ED009D3032D47
:1012B00004BF2046FFF7ADFF0AE02046FFF767FFB7
:1012C00006E02046FFF782FF02E02046FFF796FF88
:1012D000A57131BD6529A8BF6421C1716422C1EB2C
:1012E000012191FBF2F18279022A08D10A0192B21E
:1012F000B2F5805FA8BF40F6FF72354B1A60807967
:10130000032804BF3348018070476529A8BF6421C2
:1013100001726422C1EB012191FBF2F18279022A70
:1013200008D10A0192B2B2F5805FA8BF40F6FF7201
:10133000294B1A608079032804BF28480180704730
:1013400070B504460D460FF29C00254E2A5C3068AD
:101350004421FFF765FAC1B22046FFF79EFF0FF266
:1013600088002A5C30684521FFF75AFAC1B220464E
:10137000FFF7B0FF0FF274002A5C30684621FFF7D8
:101380004FFAC1B22046BDE87040BEE738B504460A
:10139000134DA27928684421FFF74BFAE2792868B7
:1013A0004521FFF746FA227A2868BDE838404621F1
:1013B000FFF73FBA00000000040C01401008014094
:1013C0001810024000400140444001401C00014010
:1013D000147400403840014008740040344001401B
:1013E0006800002001010101646464646464646451
:1013F0004F48C16941F08051C161F0224D490A60F6
:101400004A685207FCD4416841F480114160016888
:1014100041F08071016001688901FCD5416889084B
:1014200089004160416841F002014160416801F07A
:101430000C010829FAD10022816941F03D01816146
:1014400000213D48C1603D49CA604FF088320260CA
:1014500042600A604A603A4802604260394802606D
:101460004260704738480021016045F6BF51374857
:101470004160F02236490A70002181600721016035
:10148000704731480168491C016070472F48314955
:101490000068000C00F00100087070472A490A68D3
:1014A0000B689B1A8342FBD3704727490A684A603E
:1014B000886070472448016842688068891A8142C0
:1014C0008041C043C00F704700BF00224272827249
:1014D0004A1E9241D20F027201601B4909684160A5
:1014E00070470160491E8941C90F0172F5E710B4C8
:1014F000827A154B19684468091B0468A1420ED30F
:101500000121002A1EBF047A002C0021012404724C
:10151000447A2CB11A6842600022027205E0002170
:10152000002A02BF427A002A017A084610BC70479E
:10153000001002400070004000080140000C014013
:1015400000100140001401405800002010E000E0AD
:1015500023ED00E09400002000F0BEBA70B505460F
:1015600005F10F00C408E400C046C046A54232D2CF
:10157000082C04D2082402E0083000F0B1FA224816
:10158000026811000CD1011D0A6802B31368A3425E
:1015900038BF111DF8D310E01D68A5420DD2191DEA
:1015A0000B68002BF8D11268011D00E0191D0B68B3
:1015B00093420CD01D68A542F8D361B10D682A682A
:1015C000A2F10803A3420AD26A680A600FE000F0A1
:1015D000C7FA0028D0D1C046C046002070BD6319AC
:1015E0000B60121B6E685E600B681A602C600968E5
:1015F00000291DBF4A68002A091D00210160C0465C
:10160000C04605F1080070BD7C000020704780B521
:101610005F484FF48071C16001680909090141F018
:10162000060101604FF40071C160016821F0F00112
:1016300041F0600101605748016841F400310160E8
:101640000021554801854FF6FF71818501210180F8
:1016500000F003F8BDE801407BE070B509244FF4C9
:1016600080754E4E3068800507D4F56000F089F82B
:10167000B56000F086F8641EF4D170BD80B500211D
:10168000474800F083FABDE801407AE02DE9F041D7
:10169000044608254FF48078404F424EC7F80C802E
:1016A00020064CBF01210021301D00F06FFA6400BC
:1016B00000F067F8C7F8088000F063F86D1EEDD100
:1016C0000021304600F06CFA0121301D00F05EFA76
:1016D00000F057F80121304600F062FA00F051F8AE
:1016E0003C6800F04EF8600A00F0010080F0010054
:1016F000BDE8F0812DE9F84381460826274F4FF4D5
:1017000000784FF48074FC60C7F8088000F039F866
:10171000BC6000F036F86D0638682D0E800548BFB5
:1017200045F00105761EEED11E4E0021304600F038
:1017300037FA89F00101301D00F028FA00F021F895
:101740000121304600F02CFA00F01BF82846BDE8D5
:10175000F28310B5134C0021204600F021FA00213D
:10176000201D00F013FA00F00CF80121204600F0D3
:1017700017FA00F006F80121201D00F007FABDE875
:10178000104009480021018001886629FCDB704770
:10179000040C01401810024000440140080C0140B4
:1017A000700000206C000020244401400171284892
:1017B000016821F4704141F430410160016821F475
:1017C000700141F43001016040210161016821F0A4
:1017D000706141F04071016080210161016809017F
:1017E000090941F0C04101601A48016841F00071E7
:1017F00041F0010101601848016841F48051016025
:101800004CF2473115480180704770B4154A144CAA
:1018100040235360002305E05D5C2688B607FCD5B5
:10182000A5805B1C0579DBB2AB42F5D3208880072D
:10183000FCD520880006FCD44020106070BC7047A6
:101840000848002907BF802101608021416070475E
:10185000000C01400400014018100240003001401B
:1018600008300140100C0140F0B4564B1C6844F4A1
:1018700080441C605C6944F400745C61524C79B92A
:10188000524E35682D092D013560E56845F0020599
:10189000E560656B45F4801565634FF4006525616F
:1018A00001290FD1494E376827F0F0073760E66805
:1018B00046F01006E660666B46F4841666634FF4E5
:1018C000006666614FF4807626604FF6FE754AF238
:1018D000010666609E6946F001069E614FF08046F3
:1018E00037882F40378000273785F927B78520278D
:1018F000B780676847F00807676067683F07FCD4F0
:10190000676847F00407676067687F07FCD4A1B980
:101910001C692F4F44F001041C612E4CA760E2604B
:101920004FF40077676042F2A1572760B48D6408D6
:10193000B486B48944F40074B481012913D11C69BC
:1019400044F001041C61244B224C236362634FF476
:101950000072E26242F2A152A262B28D3287B28973
:1019600042F48062B281328842F00102328001701A
:10197000F0BC7047007860B918480168490348BF57
:101980004FF480210DD40168890316D54FF400313E
:101990000FE0012811D111480168490104D54FF029
:1019A00080614160002070470168890105D54FF0D2
:1019B000007141604FF4807070474FF0FF30704706
:1019C000000000000410024004240140000801400F
:1019D0003C240140580002404024014000000240E5
:1019E00080B5002000F028F8064801684908490041
:1019F00001600068C00304D40348016821F000516D
:101A0000016001BD007400401C10024080B5002040
:101A100000F01CF80648016821F48031016000687C
:101A2000C00704D40348016821F00051016001BDE2
:101A3000007400401C10024003490A6822F470221E
:101A400042EA0040086070470008014003490A6804
:101A500022F4700242EA005008607047000801401A
:101A600080B50020FFF7E8FF0548016841F000510C
:101A700001600448016841F00101016001BD00BF3F
:101A80001C1002400074004080B50020FFF7DEFF0C
:101A90000548016841F0005101600448016841F4C3
:101AA0008031016001BD00BF1C1002400074004085
:101AB00003490A681201120942EA0070086070477F
:101AC000040C014003490A6822F0706242EA006097
:101AD00008607047040C0140012000F06BB8000062
:101AE00000B9704710B5A0F108042068082833D366
:101AF00010F0070F30D1C046C0461848416809B100
:101B00008C4203D26160446017E019464B680BB108
:101B1000A342FAD30A6853189C421BD3A34204D1B0
:101B200023689A180A600C4607E04A681AB12368CD
:101B30001B199A420ED362604C60616851B12268F1
:101B400013198B4206D100230360086880182060B7
:101B500048686060C046C04610BD00007C000020A0
:101B60000749086808B1002070470648C008C0004F
:101B700008600549C908C900091A0160704700BF1B
:101B8000900000209F0200209712002003484FF48D
:101B9000007209B10260704742607047100C01404A
:101BA00003484FF4807209B1026070474260704789
:101BB000100C014080B5C046C046024A11001820F2
:101BC000ABBEFBE72600020010B504462C20FEF752
:101BD000ADFD20B180224FF4E13100F029FA6060C0
:101BE000002020700120FEF7A1FDDFF8EC13086053
:101BF000204610BD70B50446207818B9606800F022
:101C0000F1FA20702078002800F0E581401E1328AA
:101C100000F2D781DFE810F0140016002700D5018C
:101C2000D50133003D0045004F005700A000A6003D
:101C3000FA005C016E018001A001BC01C501CB016D
:101C40000121BFE1606800F0FFFA0546012DC0F2F6
:101C5000BC81606800F0FAFA0146606800F00AFB97
:101C60006D1EF6D1B1E10FF2BC352878002800F0E6
:101C7000AC8115F8011B606800F0FCFAF5E76068BC
:101C800000F0E4FA0146D5480068FEF735FC002173
:101C900098E16068002100F0EDFAD0480068417CCE
:101CA00090E1606800F0D2FA0146CC480068FEF787
:101CB0003BFC002186E16068002100F0DBFAC748A8
:101CC0000068817C7EE1C54D286890F8F6100029F7
:101CD00000F08181867C6068002100F0CBFAF0077B
:101CE0000BD52868B0F91610606800F0D2FA2868A1
:101CF000B0F91810606800F0CCFAB0070BD528686E
:101D0000B0F91A10606800F0C4FA2868B0F91C1025
:101D1000606800F0BEFA70070BD52868B0F9221091
:101D2000606800F0B6FA2868B0F92410606800F026
:101D3000B0FA30070BD52868B0F91E10606800F0C3
:101D4000A8FA2868B0F92010606800F0A2FA2868A4
:101D5000002180F8F61038E1A0480068FEF7EFFB9C
:101D600000212FE1606800F077FA9D4908806068E3
:101D700000F072FA9B490880606800F06DFA9A4999
:101D80000880606800F068FA98490880606800F090
:101D900063FA97490880606800F05EFA9549088008
:101DA000606800F059FA94490880606800F054FABD
:101DB00092490880606800F04FFA91490880606895
:101DC00000F04AFA8F490880606800F045FA8E49B1
:101DD0000880606800F040FA8C490880606800F074
:101DE0003BFA8B490880606800F036FA8949088020
:101DF000606800F031FA88490880606800F02CFAC9
:101E000086490880FFF707F80021DBE000216068C1
:101E100000F030FA7248B0F90010606800F039FA4A
:101E20007048B0F90010606800F033FA6E48B0F9FD
:101E30000010606800F02DFA6C48B0F9001060687E
:101E400000F027FA6A48B0F90010606800F021FA43
:101E50006848B0F90010606800F01BFA6648B0F9F5
:101E60000010606800F015FA6448B0F9001060686E
:101E700000F00FFA6248B0F90010606800F009FA4B
:101E80006048B0F90010606800F003FA5E48B0F9ED
:101E90000010606800F0FDF95C48B0F9001060685F
:101EA00000F0F7F95A48B0F90010606800F0F1F955
:101EB0005848B0F90010606800F0EBF95648B0F9E6
:101EC0000010606800F0E5F95448B0F900105BE0DC
:101ED000424D0026606800F0BFF902462868F1B262
:101EE000FEF7C0FA761C322EF4DB2868FEF7C0FA43
:101EF000002167E06068002100F0BCF90026374D42
:101F00002868F1B2FEF7F3FA0146606800F0C1F903
:101F1000761C322EF4DB58E0606800F097F9404DF3
:101F200001462868FFF7B9F9606800F08FF90146AB
:101F30002868FFF7CFF9606800F088F90146286843
:101F4000FFF7E3F9606800F087F981B22348006881
:101F5000FEF7FFFA002135E06068002100F08AF901
:101F60002F4D28688179606800F084F92868C1796C
:101F7000606800F07FF92868017A606800F07AF9FB
:101F800016480068B0F9F410606800F082F91CE0AF
:101F900012480068FEF728FB00280CBF002107212B
:101FA00010E00E480068FEF748FB00210AE0606878
:101FB000002100F05FF908480168606800F07AF9D4
:101FC00003E00421606800F055F92178606800F0B2
:101FD0007EF80020207070BD840000207400002076
:101FE0000000002002000020040000200600002065
:101FF000080000200C0000200E000020120000202D
:102000001400002016000020180000201A000020F4
:102010001C000020200000202200002026000020BC
:10202000640000204D657465722056322E323000F7
:1020300038B50D460446114600F06AF82B48046096
:102040004FF400712A48C160016821F0F00141F0AD
:10205000A00101604FF48061C160016821F47061EA
:1020600041F4006101602348016841F4804101604E
:1020700021482249B1FBF5F1018042F22C01818017
:10208000F0211F48017020211E480160204632BD0A
:1020900010B51D4C82B02088800605D5A188134854
:1020A0000068C9B200F04AF8208800060ED50F4833
:1020B000006800A900F047F918B19DF80000A08061
:1020C00013BD4FF67F71A0890840A08113BD80B574
:1020D00000AA00F003F90D489DF800100180018965
:1020E00041F08001018101BD000000008800002056
:1020F00004080140181002400838014000366E0103
:1021000025E400E004E100E000380140043801402B
:1021100038B5FFE704460D1D84F82810284600F066
:10212000BDF92061284600F0B9F9606200202070F6
:102130000620207500206070204632BD4278062AB5
:102140003CD0C02905D101214170016941600021C5
:1021500002E0DB2902D101218170704790F802C0B2
:10216000BCF1000F08D0DD2908BFDB2102D0DC293B
:1021700014D1C02100238370012A06D01ED3032A64
:102180001DD014D3042A27D07047022242700A06B9
:1021900007D5027801F07F0191420AD000214170F9
:1021A000704700234268521C426002F8013D03223E
:1021B00042704268521C426002F8011D70470422BE
:1021C000427090F828208A4298BF114602698A1806
:1021D00002F203028260ECE7426883689A42E8D127
:1021E0000622E5E742780021062A2BD181680269A0
:1021F000891AC91E017382210269426013785BB992
:10220000531C436008E00CF1010343605B1E1B7824
:1022100059400FF28813C95C8368D0F804C0634545
:10222000F1D2521C426000290CBF1178012100221A
:1022300080F82020026902F203024260426A02F240
:102240000302826108467047007B70474168491C61
:10225000416011F8010D70474168491C4160491EF9
:1022600042680978521C426012F8010D41EA0020D0
:1022700000B2704700F11802137CD2F80CC08069DC
:102280006344DB1C984203D2401C106000F8011D1F
:10229000704700F1180393F810C0DB68826963444B
:1022A0009B1C9A4205D202F8011B531C8361081241
:1022B0001070704700F1180393F810C0DB68826952
:1022C00063449A4209D211700B1253700B0C937035
:1022D000D21C531C8361080E1070704730B48369A0
:1022E000C361446A1B1BDB1E80F82030631C8361C2
:1022F000057845F080052570197090F82010597008
:102300008221436A8361047854B95B1C836107E0CE
:102310005B1C83615B1E1B7859400FF28003C95C14
:102320008369C469A342F3D319700378416A03B97E
:10233000491C816100214175417004210175C02053
:10234000107030BC7047027D042A22D18269521C71
:102350008261521E12780A70C02A18BFDB2A10D17F
:10236000437D3BB9DB220A70012141758169491E19
:10237000816106E0C02A0CBFDC22DD220A70002148
:102380004175C169826991423CBF052101750120F7
:10239000704706210175002070470000005EBCE216
:1023A000613FDD83C29C7E20A3FD1F419DC3217F31
:1023B000FCA2401E5F01E3BD3E6082DC237D9FC125
:1023C000421CFEA0E1BF5D0380DE3C62BEE0025C19
:1023D000DF81633D7C22C09E1D43A1FF4618FAA405
:1023E00027799BC584DA3866E5BB5907DB856739F1
:1023F000BAE406581947A5FB7826C49A653BD987E5
:10240000045AB8E6A7F91B45C6987A24F8A6441AD8
:1024100099C7257B3A6486D85B05E7B98CD2306EC4
:10242000EDB3510F4E10F2AC2F7193CD114FADF3B0
:10243000702ECC92D38D6F31B2EC0E50AFF1134DA4
:10244000CE90722C6D33D18F0C52B0EE326C8ED098
:10245000530DEFB1F0AE4C1291CF2D73CA94762884
:10246000ABF517490856B4EA6937D58B5709EBB570
:1024700036688AD495CB2977F4AA4816E9B7550B64
:1024800088D6346A2B7597C94A14F6A8742AC89658
:10249000154BA9F7B6E80A54D7896B35FEF746B94C
:1024A00010B5FEF7DFFFF820FEF740F908B1FDF7A1
:1024B00037FE094C20600820FEF738F908B1FFF715
:1024C00083FB6060FEF7E2FF2068FDF76FFE606847
:1024D000FFF790FBF6E700BF7400002010B5074936
:1024E00079441831064C7C44163404E00A68081D0F
:1024F000511888470146A142F8D110BD08000000DC
:1025000018000000D3E3FFFF980000000000002047
:10251000000000000500000010B50446044979449D
:102520000E31044878440C3000F006F8204610BD07
:10253000340100002C01000038B504460D46AC42C1
:1025400005D0206820188047241DAC42F9D131BD48
:1025500000F009F8002801D0FFF7C0FF0020FFF7C6
:102560009FFF00F002F80120704700F001B8000062
:1025700007463846FFF71EFBFBE70000014880478F
:1025800001480047F11300088D250008C046C046E9
:10259000C046C046FFF7DCFFFFF7FEBFFFF7FEBFF8
:1025A000FFF7FEBFFFF7FEBFFFF7FEBFFFF7FEBF5F
:1025B000FFF7FEBFFFF7FEBFFEF763BFFFF7FEBFEB
:1025C000FFF7FEBFFFF7FEBFFFF7FEBFFFF7FEBF3F
:1025D000FFF7FEBFFFF7FEBFFFF7FEBFFFF7FEBF2F
:1025E000FFF7FEBFFFF7FEBFFFF7FEBFFFF7FEBF1F
:1025F000FFF7FEBFFFF7FEBFFFF7FEBFFFF7FEBF0F
:10260000FFF7FEBFFFF7FEBFFFF7FEBFFFF7FEBFFE
:10261000FFF7FEBFFFF7FEBFFFF7FEBFFFF7FEBFEE
:10262000FFF7FEBFFFF7FEBFFFF7FEBFFFF7FEBFDE
:10263000FFF7FEBFFFF7FEBFFFF7FEBFFFF7FEBFCE
:10264000FFF726BDFFF7FEBFFFF7FEBFFFF7FEBF98
:10265000FFF7FEBFFFF7FEBFFFF7FEBFFFF7FEBFAE
:04266000ADEFFFFFDC
:040000050800258D3D
:00000001FF
