:020000040800F2
:1000000098020020A9230008C5230008C92300087E
:10001000CD230008D1230008D523000800000000EC
:10002000000000000000000000000000D9230008CC
:10003000DD23000800000000E1230008EB0C0008AD
:10004000E9230008ED230008F1230008F523000848
:10005000F9230008FD2300080124000805240008F6
:10006000092400080D2400081124000815240008A4
:10007000192400081D240008212400082524000854
:10008000292400082D240008312400080000000065
:1000900000000000000000000000000035240008FF
:1000A000392400083D2400084124000845240008A4
:1000B000492400084D240008512400085524000854
:1000C000592400085D240008612400086524000804
:1000D00069240008BD1E000871240008752400086A
:1000E000792400087D240008812400080000000015
:1000F0000000000000000000000000000000000000
:1001000000000000000000000000000000000000EF
:100110000000000000000000852400088924000879
:1001200038B504460D46012000F0ECFA18B1221D46
:10013000294600F0F9FA20600020C4F80404A4F86D
:100140000804A4F80A04204600F014F9204632BD41
:10015000F8B50446206800F06DFB002800F1088126
:1001600004EB4000011D4FF480724FF6E973B4F8C0
:100170000454B4F90A6431F9020B03FB0655C4F8C0
:100180000454B4F80864861B06EB2545A4F80A5409
:10019000A4F808042DB2002D48BF6D42A4F80C54F9
:1001A000B4F90C64D4F81054DFF8C004A6EB25476A
:1001B0003FB2012F05DBD0F828C00CFB0755C4F86F
:1001C0001054D4F82854A6EB254636B2012E04DB91
:1001D000076C07FB0655C4F82854521EC7D1D4F843
:1001E0001034016B1D14ADB201FB05F2DFF8801471
:1001F0008A42A8BFDFF87C2412014FEA224CD4F8CF
:100200001424ACEB224636B2002E07D4476B07FB12
:100210000622C4F814240022A4F818244EF228421E
:10022000D4F8146402FB0CFC37144FEA2C4C1FFA70
:100230008CFCBFB2BC4505D2D0F82CC00CFB1533EA
:10024000C4F81034B4F818344589AB4203D25B1CAF
:10025000A4F8183404E0836B03FB1763C4F8143468
:10026000D4F81434058AC5B1D4F81C549D4204DA7C
:10027000C4F81C340025A4F82054B4F82054068A8D
:10028000B54203D26D1CA4F8205408E0D4F81C54E5
:10029000C76B2E14B6B207FB1655C4F81C54D4F81D
:1002A00024549D42B8BF1D46C4F82454D4F82834C1
:1002B000866C1D14ADB26E438E42A8BFDFF8B463E6
:1002C0003701D4F82C143F14A7EB214636B2002E88
:1002D00008D4D0F84CC00CFB0611C4F82C14002133
:1002E000A4F830147A43D4F82C140E14121492B2D9
:1002F000B6B2B24204D2426C02FB1532C4F82824D2
:10030000B4F83024C38B9A4203D2511CA4F83014A1
:1003100004E0026D02FB1611C4F82C14D4F82C145E
:10032000828CCAB1D4F834248A4204DAC4F8341472
:100330000022A4F83824B4F83824838C9A4203D2DB
:10034000501CA4F838040AE0D4F83424406D131487
:100350009BB200FB132000E00020C4F83404D4F862
:100360003C048842B8BF0846C4F83C040120F2BDF2
:100370000020F2BD0021C0F8101400F210404160CE
:100380000181C160018241618161C1610184416279
:100390000185C16270470021C0F82414C0F83C14E4
:1003A000704710B4B14802884FF48031002A1ABF58
:1003B00046F6AA23B3FBF2F20A4682624288002A7A
:1003C0001ABFAD4BB3FBF2F20A46C2628388AB4A56
:1003D00053431B0B0363C388002B1ABFA64CB4FB0B
:1003E000F3F30B4643630389002B1ABFA24CB4FB03
:1003F000F3F30B468363838903EB430463031B0C12
:100400004381C389002B1ABF9B4CB4FBF3F30B460B
:10041000C363438A03EB430463031B0C0382838A95
:10042000002B1ABF46F6AA24B4FBF3F30B46036471
:10043000C38A002B1ABF904CB4FBF3F30B46436402
:10044000038B5A43120B8264428B002A1ABF8A4BD9
:10045000B3FBF2F20A46C264828B002A1ABF864BB3
:10046000B3FBF2F20A460265028C02EB42035A0326
:10047000120CC283428C12B17F49B1FBF2F141658B
:10048000C18C01EB41025103090C818410BC7047FF
:1004900070B506460FF2EC10794D30F8162028683A
:1004A000724C012100F063FA208002210FF2DC106F
:1004B00030F81620286800F05AFA608003210FF205
:1004C000D41030F81620286800F051FAA0800421DA
:1004D0000FF2C81030F81620286800F048FAE080C3
:1004E00005210FF2C01030F81620286800F03FFAFE
:1004F000208106210FF2B41030F81620286800F091
:1005000036FAA08107210FF2AC1030F816202868C7
:1005100000F02DFAE08108210FF2A01030F816202B
:10052000286800F024FA608209210FF2981030F850
:100530001620286800F01BFAA0820A210FF28C1006
:1005400030F81620286800F012FAE0820B210FF232
:10055000841030F81620286800F009FA20830C2156
:100560000FF2781030F81620286800F000FA608347
:100570000D210FF2701030F81620286800F0F7F9FE
:10058000A0830E210FF2641030F81620286800F0C6
:10059000EEF920840F210FF25C1030F81620286845
:1005A00000F0E5F9608410210FF2501030F81620A9
:1005B000286800F0DCF9E084BDE87040F1E638B569
:1005C0002F4C2A4D20682A88012100F0D9F96A8829
:1005D0002068022100F0D4F9AA882068032100F0E5
:1005E000CFF9EA882068042100F0CAF92A89206836
:1005F000052100F0C5F9AA892068062100F0C0F99C
:10060000EA892068072100F0BBF96A8A206808217E
:1006100000F0B6F9AA8A2068092100F0B1F9EA8A47
:1006200020680A2100F0ACF92A8B20680B2100F029
:10063000A7F96A8B20680C2100F0A2F9AA8B206828
:100640000D2100F09DF92A8C20680E2100F098F908
:100650006A8C20680F2100F093F9EA8C2068BDE8CD
:100660003840102100F08CB900000000000000208C
:100670000180AF020080AF02222206002840010064
:100680006800002032003200E001E02EA406A4063B
:10069000790DB2024C044C047404E60A6400640050
:1006A00000000000A406A406790DB2021400140094
:1006B0000000000000005802000000000000E803F5
:1006C000000000000000000000000000000000002A
:1006D0000000CB011A040000000034046400000094
:1006E00000001900580200000000B202E8030000F8
:1006F00000001900000000000000000000000000E1
:100700000000D00710B5044601E000F06AF9204669
:1007100000F07AF928B9034800680100F5D0804755
:10072000F5E710BD8C000020F0B4564B1C6844F473
:1007300080441C605C6944F400745C61524C79B97B
:10074000524E35682D092D013560E56845F00205EA
:10075000E560656B45F4801565634FF400652561C0
:1007600001290FD1494E376827F0F0073760E66856
:1007700046F01006E660666B46F4841666634FF436
:10078000006666614FF4807626604FF6FE754AF289
:10079000010666609E6946F001069E614FF0804644
:1007A00037882F40378000273785F927B7852027DE
:1007B000B780676847F00807676067683F07FCD441
:1007C000676847F00407676067687F07FCD4A1B9D2
:1007D0001C692F4F44F001041C612E4CA760E2609D
:1007E0004FF40077676042F2A1572760B48D640828
:1007F000B486B48944F40074B481012913D11C690E
:1008000044F001041C61244B224C236362634FF4C7
:100810000072E26242F2A152A262B28D3287B289C4
:1008200042F48062B281328842F00102328001706B
:10083000F0BC7047007860B918480168490348BFA8
:100840004FF480210DD40168890316D54FF400318F
:100850000FE0012811D111480168490104D54FF07A
:1008600080614160002070470168890105D54FF023
:10087000007141604FF4807070474FF0FF30704757
:100880000000000004100240042401400008014060
:100890003C24014058000240402401400000024036
:1008A00010B5044600F009F900202071002120460F
:1008B00000F026F8204610BD38B50446392000FB6C
:1008C000012080B241008009217000F00E006070AC
:1008D000192000F01EFA00F027F9607840F0A0001F
:1008E00000F02AF9050007D100F018FA0028F2D02C
:1008F00000F085F9284632BD207800F01DF9F9E7AF
:1009000010B5044604290ADAE170002100F008F865
:100910004BF6DE6188420CBF01200020A07010BDA4
:1009200010B504460A46E178FFF7C6FF88B100F02B
:1009300066F900F0F9F8607840F0A10000F0FCF8EA
:10094000012000F02DF90446002000F029F944EAC6
:10095000002010BD10B514460A46C178FFF7ACFF61
:1009600020B1E0B200F0E8F8200A34E010BD034600
:1009700010469A78002A1CBF1846FFF7D1BF70476F
:1009800070B504460D461646FFF7CAFFB04204D0C4
:10099000324629462046FFF7DDFF29462046FFF76D
:1009A000BFFFB0421CBF0120207170BD38B54BF6AF
:1009B000DE6504462A460021FFF7E2FF00212046BB
:1009C000FFF7AEFFA8420CBF01200020A07031BD90
:1009D00000218170704700F0AFF8BDE8104000F0D2
:1009E0000EB900F0C7B950F8041B61B150F8042BE0
:1009F000D30744BFA9F101039A18002342F8043B2E
:100A0000091FFAD1EFE7704770B5054605F10F00F1
:100A1000C408E400C046C046A54232D2082C04D225
:100A2000082402E0083000F0A9F922480268110009
:100A30000CD1011D0A6802B31368A34238BF111D0F
:100A4000F8D310E01D68A5420DD2191D0B68002BCC
:100A5000F8D11268011D00E0191D0B6893420CD0FB
:100A60001D68A542F8D361B10D682A68A2F1080398
:100A7000A3420AD26A680A600FE000F0BFF90028BA
:100A8000D0D1C046C046002070BD63190B60121B58
:100A90006E685E600B681A602C60096800291DBFD3
:100AA0004A68002A091D00210160C046C04605F1C0
:100AB000080070BD7C000020704780B55F484FF48F
:100AC0008071C16001680909090141F006010160F6
:100AD0004FF40071C160016821F0F00141F0600144
:100AE00001605748016841F4003101600021554818
:100AF00001854FF6FF7181850121018000F003F827
:100B0000BDE801407BE070B509244FF480754E4E7E
:100B10003068800507D4F56000F089F8B56000F012
:100B200086F8641EF4D170BD80B50021474800F0FE
:100B30007BF9BDE801407AE02DE9F0410446082543
:100B40004FF48078404F424EC7F80C8020064CBFCF
:100B500001210021301D00F067F9640000F067F802
:100B6000C7F8088000F063F86D1EEDD10021304613
:100B700000F064F90121301D00F056F900F057F83B
:100B80000121304600F05AF900F051F83C6800F0BD
:100B90004EF8600A00F0010080F00100BDE8F0812D
:100BA0002DE9F84381460826274F4FF400784FF48B
:100BB0008074FC60C7F8088000F039F8BC6000F071
:100BC00036F86D0638682D0E800548BF45F00105E2
:100BD000761EEED11E4E0021304600F02FF989F02E
:100BE0000101301D00F020F900F021F8012130460C
:100BF00000F024F900F01BF82846BDE8F28310B598
:100C0000134C0021204600F019F90021201D00F0AE
:100C10000BF900F00CF80121204600F00FF900F06C
:100C200006F80121201D00F0FFF8BDE8104009483A
:100C30000021018001886629FCDB7047040C01401B
:100C40001810024000440140080C014070000020D0
:100C50006C000020244401403C48C16941F08051AF
:100C6000C161F0223A490A604A685207FCD44168DF
:100C700041F480114160016841F0807101600168B8
:100C80008901FCD54168890889004160416841F0CB
:100C900002014160416801F00C010829FAD10022EB
:100CA000816941F03D01816100212A48C1602A49E2
:100CB000CA604FF08832026042600A604A6027488A
:100CC0000260426026480260426070472548002169
:100CD000016045F6BF5124484160F02223490A7063
:100CE000002181600721016070471E480168491C8E
:100CF000016070471C481E490068000C00F00100AC
:100D00000870704717490A680B689B1A8342FBD327
:100D1000704714490A684A60886070471148016842
:100D200042688068891A81428041C043C00F704781
:100D300000BF0022427282724A1E9241D20F02729A
:100D400001600849096841607047000000100240D6
:100D50000070004000080140000C014000100140FC
:100D6000001401405800002010E000E023ED00E0F6
:100D700094000020012000F06BB8000000B970471B
:100D800010B5A0F108042068082833D310F0070F2D
:100D900030D1C046C0461848416809B18C4203D2E0
:100DA0006160446017E019464B680BB1A342FAD367
:100DB0000A6853189C421BD3A34204D123689A1893
:100DC0000A600C4607E04A681AB123681B199A4268
:100DD0000ED362604C60616851B1226813198B4276
:100DE00006D10023036008688018206048686060AE
:100DF000C046C04610BD00007C00002007490868BE
:100E000008B1002070470648C008C00008600549C6
:100E1000C908C900091A0160704700BF900000208E
:100E20009F0200209712002003484FF4007209B17E
:100E30000260704742607047100C014003484FF455
:100E4000807209B10260704742607047100C014027
:100E500080B5C046C046024A11001820ABBEFBE771
:100E60002600020038B504460520FFF74BFC08B108
:100E7000FFF716FDDFF8A45468600E20FFF742FC70
:100E800008B100F0ABFA20600C20FFF73BFC08B182
:100E900000F064FB60604FF48860FFF733FC10B132
:100EA0000021FFF73DF9A0604FF48860FFF72AFCAE
:100EB00010B10121FFF734F9E0600920FFF722FCAF
:100EC00008B100F081FB2860042020746074606821
:100ED00000F068FB0146207C884203D02174204644
:100EE00000F077F9204600F0EEF80020E07420755D
:100EF00084F8BA00204632BDF8B50446A068FFF772
:100F000027F908B10120E074E068FFF721F908B182
:100F100001202075E07C00281CBF207D002800F007
:100F2000C280A07CC10709D5A168D1F814140914A6
:100F3000E182E168D1F814140914218381070BD5EB
:100F4000A16801F21441896909146183E16801F221
:100F5000144189690914A18341070BD5A16801F2E5
:100F60001441896809146184E16801F214418968B7
:100F70000914A18401070BD5A16801F21441096A83
:100F80000914E183E16801F21441096A091421841A
:100F9000C00616D5A06800F2144001690914E18268
:100FA000E16801F214410A6912142283806A001474
:100FB0006083886A0014A08300206084A084E0839A
:100FC0002084232084F8260084F8270084F8280051
:100FD00084F8290084F82A0084F82B00002526468E
:100FE000B6F97270E08AB842ACBF012200222068D4
:100FF000294600F014FA208BB842ACBF012200222F
:101000002068294600F021FA608BB842A8BF84F816
:101010002650A08BB842A8BF84F82750E08BB84276
:10102000A8BF84F82850208CB842A8BF84F8295063
:10103000608CB842A8BF84F82A50A08CB842A8BFE0
:1010400084F82B506D1CB61C232DC9DB94F8261098
:101050002068012200F0E3F994F8271020680122AB
:1010600000F0F3F994F828102068012200F0D7F975
:1010700094F829102068012200F0E7F994F82A106A
:101080002068012200F0CBF994F82B10206801228F
:1010900000F0DBF9206800F0BFF90020E074207553
:1010A000012084F8BA009E48007858B1606800F0CA
:1010B00079FA217C814205D0207401462046BDE8A2
:1010C000F44086E0F1BD38B504462321206800F0E5
:1010D000D2F92068232100F0DFF9206800F09CF9A4
:1010E000206840F2FF7100F0E7F9206800F094F901
:1010F0004FF49670FFF706FE20684FF4806100F011
:10110000DBF9206800F088F923252068294600F0E3
:10111000B2F92068294600F0BFF9206800F07CF998
:101120001C20FFF7EFFD6D1EEFD1B4F8B81020685A
:1011300000F0C2F92068BDE8324000F06DB9232903
:10114000BCBF00EB4100828570472DE9F043B0F948
:1011500070100FF230280FF20C250FF2E8160FF284
:10116000C419232242F2107341F6417CB0F92C409D
:101170000C1B1FFA84FEE645A8BF4FF0000E1CDAD8
:101180004FEADE0707F01E070EF00F0439F814408F
:10119000BF5B7C434FEADE1707F01E07240C7F5B22
:1011A0007C434FEADE2707F00207240C37F808706B
:1011B0007C43240C5C434FEA144EA0F872E0801C80
:1011C000521ED3D1BDE8F08300EB4100B0F92C00F2
:1011D000704710B5044604290BDA607C814208D0C0
:1011E0004E4861744068FFF78BFB2046BDE8104015
:1011F00021E010BD81740021C1820183418381837C
:1012000041848184C1830184704710B50446A0687D
:10121000FFF7C1F8E068BDE81040FFF7BCB810B5B3
:101220000446A4F8B810206800F046F92068BDE82C
:10123000104000F0F1B82DE9F0410446607CFFF762
:1012400027F9364D617C286800F0A2FA0FF23818B1
:101250000026274638F8022B686806F1110189B28A
:10126000FFF785FBB885761CBF1C232EF2DB2046DA
:10127000FFF76BFF607C0FF25811425C6868342105
:10128000FFF775FBC1B22046FFF7B4FF607C0FF299
:10129000441131F8102068683821FFF768FB0146D7
:1012A000A4F8B810206800F007F92068BDE8F04104
:1012B00000F0B2B8F8B5194D044668680021017114
:1012C000FFF77DF9286800F089FA00262746BA8DD5
:1012D000686806F1110189B2FFF752FB761CBF1C4A
:1012E000232EF4DBA27C68683421FFF749FBB4F8B5
:1012F000B82068683821FFF743FB6868FFF756FBA2
:1013000068680079F2BD10B5044604484068FFF7EC
:101310005FFB2046BDE810408DE700006400002020
:1013200094000020FFFFB4FF68FF1DFFD2FE87FE80
:101330003CFEF1FDA6FD5BFD11FDC6FC7CFC31FC15
:10134000E7FB9DFBFFFF53FBBDF63CF2D0ED79E9D7
:1013500036E507E1EBDCE3D8EED40BD13ACD7BC91F
:10136000CEC531C2FFFFA6BEFB8DBD69BF4EA53AFB
:10137000AD2B872039180A126F0D010A74078D05ED
:1013800022041403FFFF4B0254D994F8F8F85CF9D7
:10139000C0F924FA88FAECFA50FBB4FB18FC7CFC88
:1013A000E0FC44FDA8FD0CFE70FED4FE38FF9CFF5F
:1013B0000000320064009600C800FA002C015E01B3
:1013C0009001C201F4015802BC0220038403000012
:1013D0000305010B8A048A048A048A0410B50446B2
:1013E000092100F02DFA204600F00AF8611D204680
:1013F00000F055FA0121204600F06CFA204610BD9D
:1014000001460922FF234B71491C521EFBD1417B2F
:1014100041F0020141737047411D00F040BA232999
:1014200012DA0FF2A80313F811C003EB4101604474
:10143000497843794FF0010C0CFA01F1002A14BFEE
:1014400023EA0101194341717047232912DA0FF28F
:10145000C40313F811C003EB410160444978437998
:101460004FF0010C0CFA01F1002A14BF23EA01012C
:1014700019434171704770B504460D460026B542C8
:101480009241D243D20F31462046FFF7C8FF761C67
:10149000F6B2232EF3DB70BD70B504460D46002670
:1014A000B542ACBF01220022F1B22046FFF7CDFFCA
:1014B000761C232EF4DB70BD437B49054CBF03F043
:1014C000FD0143F00201417370470000000000037A
:1014D00000020001010001030102010102000203F8
:1014E00002020201030003030302030104000403D8
:1014F00004020401050005030502050106000603B8
:101500000602060107000703070207010800080397
:1015100008020000000400050007000601040105A0
:10152000010701060204020502070206030403057F
:10153000030703060404040504070406050405055F
:10154000050705060604060506070606070407053F
:1015500007070706080408050807000010B5044639
:1015600017484FF40041C16001680901090941F0C1
:10157000004101604FF48041C160016821F0706159
:1015800041F0006101600020207260720C20FFF7C2
:10159000B9F810B10021FFF7CBFB60600121817227
:1015A000204610BD07490A680020120458BF0120D8
:1015B0000968490458BF40F002007047000000006D
:1015C000041001400810014010B504460020E071ED
:1015D00020720021204600F088F8204610BD10B58A
:1015E0000446201D00F08AF9601D00F09DF9204698
:1015F00000F066F884484FF4004101610168090178
:10160000090941F0005101604FF480410161016816
:1016100021F0706141F00071016010BD10B5044609
:10162000201D00F06BF9601D00F07EF9204600F0EF
:1016300047F8764C10202060022000F08BF9202023
:1016400020600220BDE8104000F08EB910B50446BD
:1016500000F036F8201D00F091F9601D00F0A2F9AD
:1016600025E010B504466A48016841F48031016004
:101670000021684801854FF40042FF218185002147
:10168000818646F66801018311210184012181824E
:1016900061490A80012101806048016841F001012F
:1016A0000160092000F092F9092000F099F9E17930
:1016B000204600F037F8217A2046BDE810404CE083
:1016C00080B5544800210184002253490A800280D9
:1016D0004F48016821F480310160002000F076F964
:1016E000BDE80240002000F07BB938B504460D4645
:1016F000A079A84215D045B1022D0ED009D3032DF3
:1017000004BF2046FFF7ADFF0AE02046FFF767FF62
:1017100006E02046FFF782FF02E02046FFF796FF33
:10172000A57131BD6529A8BF6421C1716422C1EBD7
:10173000012191FBF2F18279022A08D10A0192B2C9
:10174000B2F5805FA8BF40F6FF72354B1A60807912
:10175000032804BF3348018070476529A8BF64216E
:1017600001726422C1EB012191FBF2F18279022A1C
:1017700008D10A0192B2B2F5805FA8BF40F6FF72AD
:10178000294B1A608079032804BF284801807047DC
:1017900070B504460D460FF29C00254E2A5C306859
:1017A0003521FFF7E4F8C1B22046FFF79EFF0FF2A4
:1017B00088002A5C30683621FFF7D9F8C1B220468C
:1017C000FFF7B0FF0FF274002A5C30683721FFF793
:1017D000CEF8C1B22046BDE87040BEE738B5044639
:1017E000134DA27928683521FFF7CAF8E2792868F5
:1017F0003621FFF7C5F8227A2868BDE8384037213E
:10180000FFF7BEB800000000040C014010080140C2
:101810001810024000400140444001401C000140BB
:1018200014740040384001400874004034400140C6
:1018300068000020010101016464646464646464FC
:1018400001712848016821F4704141F43041016080
:10185000016821F4700141F430010160402101610F
:10186000016821F0706141F04071016080210161E7
:1018700001680901090941F0C04101601A48016885
:1018800041F0007141F0010101601848016841F424
:10189000805101604CF2473115480180704770B4A7
:1018A000154A144C40235360002305E05D5C2688F4
:1018B000B607FCD5A5805B1C0579DBB2AB42F5D33E
:1018C00020888007FCD520880006FCD440201060CA
:1018D00070BC70470848002907BF80210160802143
:1018E00041607047000C01400400014018100240A4
:1018F0000030014008300140100C014080B500204C
:1019000000F028F8064801684908490001600068AD
:10191000C00304D40348016821F00051016001BDF7
:10192000007400401C10024080B5002000F01CF83C
:101930000648016821F4803101600068C00704D4C2
:101940000348016821F00051016001BD00740040AE
:101950001C10024003490A6822F4702242EA004047
:10196000086070470008014003490A6822F47002C9
:1019700042EA0050086070470008014080B500202E
:10198000FFF7E8FF0548016841F000510160044895
:10199000016841F00101016001BD00BF1C1002405F
:1019A0000074004080B50020FFF7DEFF05480168A5
:1019B00041F0005101600448016841F48031016048
:1019C00001BD00BF1C1002400074004003490A68BA
:1019D0001201120942EA007008607047040C0140CD
:1019E00003490A6822F0706242EA006008607047AA
:1019F000040C014010B504462C20FEF783FE20B1F4
:101A000080224FF4E13100F029FA6060002020705C
:101A10000120FEF777FEDFF8EC130860204610BDCA
:101A200070B50446207818B9606800F0F1FA2070AB
:101A30002078002800F0E581401E132800F2D781AD
:101A4000DFE810F0140016002700D501D50133009F
:101A50003D0045004F005700A000A600FA005C01C1
:101A60006E018001A001BC01C501CB010121BFE1D4
:101A7000606800F0FFFA0546012DC0F2BC81606885
:101A800000F0FAFA0146606800F00AFB6D1EF6D11C
:101A9000B1E10FF2BC352878002800F0AC8115F8D0
:101AA000011B606800F0FCFAF5E7606800F0E4FAFA
:101AB0000146D5480068FFF78CFB002198E160687B
:101AC000002100F0EDFAD0480068417C90E16068A8
:101AD00000F0D2FA0146CC480068FFF78BFB0021EA
:101AE00086E16068002100F0DBFAC7480068817C6D
:101AF0007EE1C54D286890F8BA10002900F0818178
:101B0000867C6068002100F0CBFAF0070BD52868CE
:101B1000B0F91610606800F0D2FA2868B0F9181011
:101B2000606800F0CCFAB0070BD52868B0F91A103D
:101B3000606800F0C4FA2868B0F91C10606800F012
:101B4000BEFA70070BD52868B0F92210606800F063
:101B5000B6FA2868B0F92410606800F0B0FA3007CF
:101B60000BD52868B0F91E10606800F0A8FA286844
:101B7000B0F92010606800F0A2FA2868002180F80F
:101B8000BA1038E1A0480068FFF73FFB00212FE1C1
:101B9000606800F077FA9D490880606800F072FA8A
:101BA0009B490880606800F06DFA9A490880606877
:101BB00000F068FA98490880606800F063FA974975
:101BC0000880606800F05EFA95490880606800F05F
:101BD00059FA94490880606800F054FA92490880E4
:101BE000606800F04FFA91490880606800F04AFA96
:101BF0008F490880606800F045FA8E490880606867
:101C000000F040FA8C490880606800F03BFA8B498C
:101C10000880606800F036FA89490880606800F042
:101C200031FA88490880606800F02CFA86490880FB
:101C3000FEF7B7FB0021DBE00021606800F030FA1E
:101C40007248B0F90010606800F039FA7048B0F9D5
:101C50000010606800F033FA6E48B0F90010606858
:101C600000F02DFA6C48B0F90010606800F027FA17
:101C70006A48B0F90010606800F021FA6848B0F9CD
:101C80000010606800F01BFA6648B0F90010606848
:101C900000F015FA6448B0F90010606800F00FFA1F
:101CA0006248B0F90010606800F009FA6048B0F9C5
:101CB0000010606800F003FA5E48B0F90010606838
:101CC00000F0FDF95C48B0F90010606800F0F7F929
:101CD0005A48B0F90010606800F0F1F95848B0F9BE
:101CE0000010606800F0EBF95648B0F90010606829
:101CF00000F0E5F95448B0F900105BE0424D0026D1
:101D0000606800F0BFF902462868F1B2FFF717FAE1
:101D1000761C232EF4DB2868FFF717FA002167E012
:101D20006068002100F0BCF90026374D2868F1B248
:101D3000FFF74AFA0146606800F0C1F9761C232ECD
:101D4000F4DB58E0606800F097F9404D01462868E0
:101D5000FFF7CBFC606800F08FF901462868FFF7B9
:101D6000E1FC606800F088F901462868FFF7F5FC9F
:101D7000606800F087F981B223480068FFF74FFAE6
:101D8000002135E06068002100F08AF92F4D2868B5
:101D90008179606800F084F92868C179606800F092
:101DA0007FF92868017A606800F07AF916480068BF
:101DB000B0F9B810606800F082F91CE012480068C1
:101DC000FFF778FA00280CBF0021072110E00E4829
:101DD0000068FFF798FA00210AE06068002100F02F
:101DE0005FF908480168606800F07AF903E00421AF
:101DF000606800F055F92178606800F07EF80020F6
:101E0000207070BD840000207400002000000020BD
:101E1000020000200400002006000020080000202E
:101E20000C0000200E0000201200002014000020F2
:101E300016000020180000201A0000201C000020BE
:101E40002000002022000020260000206400002046
:101E50004D657465722056322E32300038B50D460D
:101E60000446114600F06AF82B4804604FF40071F4
:101E70002A48C160016821F0F00141F0A001016031
:101E80004FF48061C160016821F4706141F4006128
:101E900001602348016841F48041016021482249E2
:101EA000B1FBF5F1018042F22C018180F0211F4845
:101EB000017020211E480160204632BD10B51D4C26
:101EC00082B02088800605D5A18813480068C9B271
:101ED00000F04AF8208800060ED50F48006800A9D7
:101EE00000F047F918B19DF80000A08013BD4FF62F
:101EF0007F71A0890840A08113BD80B500AA00F0C1
:101F000003F90D489DF800100180018941F080011E
:101F1000018101BD0000000088000020040801408C
:101F2000181002400838014000366E0125E400E038
:101F300004E100E0003801400438014038B5FFE713
:101F400004460D1D84F82810284600F0BDF92061D4
:101F5000284600F0B9F96062002020700620207544
:101F600000206070204632BD4278062A3CD0C0294D
:101F700005D10121417001694160002102E0DB29A6
:101F800002D101218170704790F802C0BCF1000FAE
:101F900008D0DD2908BFDB2102D0DC2914D1C02103
:101FA00000238370012A06D01ED3032A1DD014D328
:101FB000042A27D07047022242700A0607D5027809
:101FC00001F07F0191420AD0002141707047002347
:101FD0004268521C426002F8013D0322427042688E
:101FE000521C426002F8011D70470422427090F8B2
:101FF00028208A4298BF114602698A1802F2030219
:102000008260ECE7426883689A42E8D10622E5E7FD
:1020100042780021062A2BD181680269891AC91EDB
:10202000017382210269426013785BB9531C4360DB
:1020300008E00CF1010343605B1E1B7859400FF26E
:102040008813C95C8368D0F804C06345F1D2521C80
:10205000426000290CBF11780121002280F8202065
:10206000026902F203024260426A02F203028261E2
:1020700008467047007B70474168491C416011F871
:10208000010D70474168491C4160491E426809784A
:10209000521C426012F8010D41EA002000B2704764
:1020A00000F11802137CD2F80CC080696344DB1C79
:1020B000984203D2401C106000F8011D704700F1E7
:1020C000180393F810C0DB68826963449B1C9A4232
:1020D00005D202F8011B531C83610812107070476F
:1020E00000F1180393F810C0DB68826963449A42D8
:1020F00009D211700B1253700B0C9370D21C531C2D
:102100008361080E1070704730B48369C361446AFC
:102110001B1BDB1E80F82030631C8361057845F0B3
:1021200080052570197090F8201059708221436A3B
:102130008361047854B95B1C836107E05B1C836195
:102140005B1E1B7859400FF28003C95C8369C46928
:10215000A342F3D319700378416A03B9491C816122
:1021600000214175417004210175C020107030BC00
:102170007047027D042A22D18269521C8261521E5C
:1021800012780A70C02A18BFDB2A10D1437D3BB9F0
:10219000DB220A70012141758169491E816106E0D7
:1021A000C02A0CBFDC22DD220A7000214175C16902
:1021B000826991423CBF05210175012070470621CB
:1021C0000175002070470000005EBCE2613FDD83C6
:1021D000C29C7E20A3FD1F419DC3217FFCA2401E07
:1021E0005F01E3BD3E6082DC237D9FC1421CFEA0F7
:1021F000E1BF5D0380DE3C62BEE0025CDF81633DE7
:102200007C22C09E1D43A1FF4618FAA427799BC5D6
:1022100084DA3866E5BB5907DB856739BAE40658C6
:102220001947A5FB7826C49A653BD987045AB8E6B6
:10223000A7F91B45C6987A24F8A6441A99C7257BA6
:102240003A6486D85B05E7B98CD2306EEDB3510F96
:102250004E10F2AC2F7193CD114FADF3702ECC9286
:10226000D38D6F31B2EC0E50AFF1134DCE90722C76
:102270006D33D18F0C52B0EE326C8ED0530DEFB166
:10228000F0AE4C1291CF2D73CA947628ABF5174956
:102290000856B4EA6937D58B5709EBB536688AD446
:1022A00095CB2977F4AA4816E9B7550B88D6346A36
:1022B0002B7597C94A14F6A8742AC896154BA9F726
:1022C000B6E80A54D7896B35FEF71CBA10B5FEF78D
:1022D000FDFCBC20FEF716FA08B1FEF7C3FD094C61
:1022E00020600820FEF70EFA08B1FFF783FB60605C
:1022F000FEF700FD2068FEF7FFFD6068FFF790FB2A
:10230000F6E700BF7400002010B507497944183182
:10231000064C7C44163404E00A68081D51188847AE
:102320000146A142F8D110BD0800000018000000CD
:10233000B7E6FFFF9800000000000020000000004A
:102340000500000010B50446044979440E310448E4
:1023500078440C3000F006F8204610BD340100002F
:102360002C01000038B504460D46AC4205D020686B
:1023700020188047241DAC42F9D131BD00F009F886
:10238000002801D0FFF7C0FF0020FFF79FFF00F0FB
:1023900002F80120704700F001B8000007463846F7
:1023A000FEF756FDFBE70000014880470148004763
:1023B000590C0008B9230008C046C046C046C046B4
:1023C000FFF7DCFFFFF7FEBFFFF7FEBFFFF7FEBF23
:1023D000FFF7FEBFFFF7FEBFFFF7FEBFFFF7FEBF31
:1023E000FFF7FEBFFEF781BCFFF7FEBFFFF7FEBFA2
:1023F000FFF7FEBFFFF7FEBFFFF7FEBFFFF7FEBF11
:10240000FFF7FEBFFFF7FEBFFFF7FEBFFFF7FEBF00
:10241000FFF7FEBFFFF7FEBFFFF7FEBFFFF7FEBFF0
:10242000FFF7FEBFFFF7FEBFFFF7FEBFFFF7FEBFE0
:10243000FFF7FEBFFFF7FEBFFFF7FEBFFFF7FEBFD0
:10244000FFF7FEBFFFF7FEBFFFF7FEBFFFF7FEBFC0
:10245000FFF7FEBFFFF7FEBFFFF7FEBFFFF7FEBFB0
:10246000FFF7FEBFFFF7FEBFFFF7FEBFFFF726BD7A
:10247000FFF7FEBFFFF7FEBFFFF7FEBFFFF7FEBF90
:10248000FFF7FEBFFFF7FEBFFFF7FEBF2DE6FFFF22
:04000005080023B913
:00000001FF
