:020000040800F2
:1000000098020020C9230008E5230008E92300081E
:10001000ED230008F1230008F5230008000000008C
:10002000000000000000000000000000F9230008AC
:10003000FD2300080000000001240008C30C000894
:10004000092400080D2400081124000815240008C4
:10005000192400081D240008212400082524000874
:10006000292400082D240008312400083524000824
:10007000392400083D2400084124000845240008D4
:10008000492400084D240008512400080000000005
:1000900000000000000000000000000055240008DF
:1000A000592400085D240008612400086524000824
:1000B000692400086D2400087124000875240008D4
:1000C000792400087D240008812400088524000884
:1000D00089240008DD1E00089124000895240008EA
:1000E000992400089D240008A124000800000000B5
:1000F0000000000000000000000000000000000000
:1001000000000000000000000000000000000000EF
:100110000000000000000000A5240008A924000839
:1001200038B504460D46012000F0ECFA18B1221D46
:10013000294600F0F9FA20600020C4F80404A4F86D
:100140000804A4F80A04204600F014F9204632BD41
:10015000F8B50446206800F06DFB002800F1088126
:1001600004EB4000011D4FF480724FF6E973B4F8C0
:100170000454B4F90A6431F9020B03FB0655C4F8C0
:100180000454B4F80864861B06EB2545A4F80A5409
:10019000A4F808042DB2002D48BF6D42A4F80C54F9
:1001A000B4F90C64D4F81054DFF8C004A6EB25476A
:1001B0003FB2012F05DBD0F828C00CFB0755C4F86F
:1001C0001054D4F82854A6EB254636B2012E04DB91
:1001D000076C07FB0655C4F82854521EC7D1D4F843
:1001E0001034016B1D14ADB201FB05F2DFF8801471
:1001F0008A42A8BFDFF87C2412014FEA224CD4F8CF
:100200001424ACEB224636B2002E07D4476B07FB12
:100210000622C4F814240022A4F818244EF228421E
:10022000D4F8146402FB0CFC37144FEA2C4C1FFA70
:100230008CFCBFB2BC4505D2D0F82CC00CFB1533EA
:10024000C4F81034B4F818344589AB4203D25B1CAF
:10025000A4F8183404E0836B03FB1763C4F8143468
:10026000D4F81434058AC5B1D4F81C549D4204DA7C
:10027000C4F81C340025A4F82054B4F82054068A8D
:10028000B54203D26D1CA4F8205408E0D4F81C54E5
:10029000C76B2E14B6B207FB1655C4F81C54D4F81D
:1002A00024549D42B8BF1D46C4F82454D4F82834C1
:1002B000866C1D14ADB26E438E42A8BFDFF8B463E6
:1002C0003701D4F82C143F14A7EB214636B2002E88
:1002D00008D4D0F84CC00CFB0611C4F82C14002133
:1002E000A4F830147A43D4F82C140E14121492B2D9
:1002F000B6B2B24204D2426C02FB1532C4F82824D2
:10030000B4F83024C38B9A4203D2511CA4F83014A1
:1003100004E0026D02FB1611C4F82C14D4F82C145E
:10032000828CCAB1D4F834248A4204DAC4F8341472
:100330000022A4F83824B4F83824838C9A4203D2DB
:10034000501CA4F838040AE0D4F83424406D131487
:100350009BB200FB132000E00020C4F83404D4F862
:100360003C048842B8BF0846C4F83C040120F2BDF2
:100370000020F2BD0021C0F8101400F210404160CE
:100380000181C160018241618161C1610184416279
:100390000185C16270470021C0F82414C0F83C14E4
:1003A000704710B4B14802884FF48031002A1ABF58
:1003B00046F6AA23B3FBF2F20A4682624288002A7A
:1003C0001ABFAD4BB3FBF2F20A46C2628388AB4A56
:1003D00053431B0B0363C388002B1ABFA64CB4FB0B
:1003E000F3F30B4643630389002B1ABFA24CB4FB03
:1003F000F3F30B468363838903EB430463031B0C12
:100400004381C389002B1ABF9B4CB4FBF3F30B460B
:10041000C363438A03EB430463031B0C0382838A95
:10042000002B1ABF46F6AA24B4FBF3F30B46036471
:10043000C38A002B1ABF904CB4FBF3F30B46436402
:10044000038B5A43120B8264428B002A1ABF8A4BD9
:10045000B3FBF2F20A46C264828B002A1ABF864BB3
:10046000B3FBF2F20A460265028C02EB42035A0326
:10047000120CC283428C12B17F49B1FBF2F141658B
:10048000C18C01EB41025103090C818410BC7047FF
:1004900070B506460FF2EC10794D30F8162028683A
:1004A000724C012100F067FA208002210FF2DC106B
:1004B00030F81620286800F05EFA608003210FF201
:1004C000D41030F81620286800F055FAA0800421D6
:1004D0000FF2C81030F81620286800F04CFAE080BF
:1004E00005210FF2C01030F81620286800F043FAFA
:1004F000208106210FF2B41030F81620286800F091
:100500003AFAA08107210FF2AC1030F816202868C3
:1005100000F031FAE08108210FF2A01030F8162027
:10052000286800F028FA608209210FF2981030F84C
:100530001620286800F01FFAA0820A210FF28C1002
:1005400030F81620286800F016FAE0820B210FF22E
:10055000841030F81620286800F00DFA20830C2152
:100560000FF2781030F81620286800F004FA608343
:100570000D210FF2701030F81620286800F0FBF9FA
:10058000A0830E210FF2641030F81620286800F0C6
:10059000F2F920840F210FF25C1030F81620286841
:1005A00000F0E9F9608410210FF2501030F81620A5
:1005B000286800F0E0F9E084BDE87040F1E638B565
:1005C0002F4C2A4D20682A88012100F0DDF96A8825
:1005D0002068022100F0D8F9AA882068032100F0E1
:1005E000D3F9EA882068042100F0CEF92A8920682E
:1005F000052100F0C9F9AA892068062100F0C4F994
:10060000EA892068072100F0BFF96A8A206808217A
:1006100000F0BAF9AA8A2068092100F0B5F9EA8A3F
:1006200020680A2100F0B0F92A8B20680B2100F025
:10063000ABF96A8B20680C2100F0A6F9AA8B206820
:100640000D2100F0A1F92A8C20680E2100F09CF900
:100650006A8C20680F2100F097F9EA8C2068BDE8C9
:100660003840102100F090B9000000000000002088
:100670000180AF020080AF02222206002840010064
:100680006800002032003200E001E02EA406A4063B
:10069000790DB2024C044C047404E60A6400640050
:1006A00000000000A406A406790DB2021400140094
:1006B0000000000000005802000000000000E803F5
:1006C000000000000000000000000000000000002A
:1006D0000000CB011A040000000034046400000094
:1006E00000001900580200000000B202E8030000F8
:1006F00000001900000000000000000000000000E1
:100700000000D00710B5044601E000F067F920466C
:1007100000F066F928B9034800680100F5D0804769
:10072000F5E710BD8C000020F0B4564B1C6844F473
:1007300080441C605C6944F400745C61524C79B97B
:10074000524E35682D092D013560E56845F00205EA
:10075000E560656B45F4801565634FF400652561C0
:1007600001290FD1494E376827F0F0073760E66856
:1007700046F01006E660666B46F4841666634FF436
:10078000006666614FF4807626604FF6FE754AF289
:10079000010666609E6946F001069E614FF0804644
:1007A00037882F40378000273785F927B7852027DE
:1007B000B780676847F00807676067683F07FCD441
:1007C000676847F00407676067687F07FCD4A1B9D2
:1007D0001C692F4F44F001041C612E4CA760E2609D
:1007E0004FF40077676042F2A1572760B48D640828
:1007F000B486B48944F40074B481012913D11C690E
:1008000044F001041C61244B224C236362634FF4C7
:100810000072E26242F2A152A262B28D3287B289C4
:1008200042F48062B281328842F00102328001706B
:10083000F0BC7047007860B918480168490348BFA8
:100840004FF480210DD40168890316D54FF400318F
:100850000FE0012811D111480168490104D54FF07A
:1008600080614160002070470168890105D54FF023
:10087000007141604FF4807070474FF0FF30704757
:100880000000000004100240042401400008014060
:100890003C24014058000240402401400000024036
:1008A00010B5044600F0F5F80021204600F027F8C6
:1008B000204610BD38B5044601EBC10002EBC00074
:1008C00080B241008009217000F00E006070192094
:1008D00000F00BFA00F014F9607840F0A00000F08E
:1008E00017F9050007D100F005FA0028F2D000F052
:1008F00072F9284632BD207800F00AF9F9E710B500
:10090000044604290ADAE170002100F008F84BF6E9
:10091000DA6188420CBF01200020A07010BD10B524
:1009200004460A46E178FFF7C5FF88B100F053F9A5
:1009300000F0E6F8607840F0A10000F0E9F801204E
:1009400000F01AF90446002000F016F944EA0020ED
:1009500010BD10B514460A46C178FFF7ABFF48B189
:10096000E0B200F0D5F8200A00F0D2F8BDE810405F
:1009700000F031B910BD034610469A78002A1CBF1A
:100980001846FFF7CCBF704770B504460D461646B3
:10099000FFF7C5FFB04205D0324629462046BDE8E4
:1009A0007040D6E770BD38B504464BF6DA650021D5
:1009B000FFF7B5FFA84204D02A4600212046FFF7E2
:1009C000C8FF00212046FFF7AAFFA8420CBF012064
:1009D0000020A07031BD00218170704700F0A8B9DF
:1009E00070B5054605F10F00C408E400C046C046D6
:1009F000A54232D2082C04D2082402E0083000F0CC
:100A0000ABF92248026811000CD1011D0A6802B33B
:100A10001368A34238BF111DF8D310E01D68A5422A
:100A20000DD2191D0B68002BF8D11268011D00E0D2
:100A3000191D0B6893420CD01D68A542F8D361B113
:100A40000D682A68A2F10803A3420AD26A680A6004
:100A50000FE000F0C1F90028D0D1C046C046002008
:100A600070BD63190B60121B6E685E600B681A60C4
:100A70002C60096800291DBF4A68002A091D002151
:100A80000160C046C04605F1080070BD7C00002032
:100A9000704780B55F484FF48071C16001680909F3
:100AA000090141F0060101604FF40071C160016865
:100AB00021F0F00141F0600101605748016841F404
:100AC000003101600021554801854FF6FF71818595
:100AD0000121018000F003F8BDE801407BE070B522
:100AE00009244FF480754E4E3068800507D4F560B8
:100AF00000F089F8B56000F086F8641EF4D170BD8E
:100B000080B50021474800F07DF9BDE801407AE05A
:100B10002DE9F041044608254FF48078404F424EBD
:100B2000C7F80C8020064CBF01210021301D00F0C9
:100B300069F9640000F067F8C7F8088000F063F80E
:100B40006D1EEDD10021304600F066F90121301D07
:100B500000F058F900F057F80121304600F05CF938
:100B600000F051F83C6800F04EF8600A00F0010017
:100B700080F00100BDE8F0812DE9F84381460826A8
:100B8000274F4FF400784FF48074FC60C7F808805A
:100B900000F039F8BC6000F036F86D0638682D0EAC
:100BA000800548BF45F00105761EEED11E4E00219E
:100BB000304600F031F989F00101301D00F022F9D2
:100BC00000F021F80121304600F026F900F01BF872
:100BD0002846BDE8F28310B5134C0021204600F0F2
:100BE0001BF90021201D00F00DF900F00CF8012187
:100BF000204600F011F900F006F80121201D00F058
:100C000001F9BDE8104009480021018001886629EA
:100C1000FCDB7047040C0140181002400044014006
:100C2000080C0140700000206C00002024440140AA
:100C30003548C16941F08051C161F02233490A60F1
:100C40004A685207FCD4416841F480114160016850
:100C500041F08071016001688901FCD54168890813
:100C600089004160416841F002014160416801F042
:100C70000C010829FAD10022816941F03D0181610E
:100C800000212348C1602349CA604FF088320260C6
:100C900042600A604A602048026042601F48026069
:100CA000426070471E480021016045F6BF511D4853
:100CB0004160F0221C490A70002181600721016017
:100CC000704717480168491C01607047154817496B
:100CD0000068000C00F001000870704710490A68B5
:100CE0000B689B1A8342FBD370470D490A684A6020
:100CF000886070470A48016842688068891A8142A2
:100D00008041C043C00F7047001002400070004097
:100D100000080140000C0140001001400014014097
:100D20005800002010E000E023ED00E094000020D7
:100D3000012000F07BB850F8041B61B150F8042B7F
:100D4000D30744BFA9F101039A18002342F8043BDA
:100D5000091FFAD1EFE7704700B9704710B5A0F14D
:100D600008042068082833D310F0070F30D1C0469C
:100D7000C0461848416809B18C4203D261604460A2
:100D800017E019464B680BB1A342FAD30A6853180F
:100D90009C421BD3A34204D123689A180A600C46D4
:100DA00007E04A681AB123681B199A420ED36260A1
:100DB0004C60616851B1226813198B4206D100233F
:100DC000036008688018206048686060C046C046BC
:100DD00010BD00007C0000200749086808B1002011
:100DE00070470648C008C00008600549C908C90026
:100DF000091A0160704700BF900000209F02002088
:100E00009712002003484FF4007209B10260704746
:100E100042607047100C014003484FF4807209B1E2
:100E20000260704742607047100C014080B5C046B8
:100E3000C046024A11001820ABBEFBE726000200A4
:100E400038B50446DFF8DC044FF40041C1600168A6
:100E50000901090941F0004101604FF48041C1607E
:100E6000016821F0706141F0006101600420FFF72A
:100E700049FC08B1FFF714FDDFF8AC54686013209B
:100E8000FFF740FC08B100F0BFFA20604FF4886023
:100E9000FFF738FC10B10021FFF742F960604FF412
:100EA0008860FFF72FFC10B10121FFF739F9A0602E
:100EB0000920FFF727FC08B100F098FB2860042008
:100EC000A073E073204600F0E9F8204600F001F935
:100ED00000206074A07484F8F400204632BDF8B598
:100EE00004466068FFF734F908B101206074A06817
:100EF000FFF72EF908B10120A074607C00281CBF08
:100F0000A07C002800F0C280207CC10709D5616860
:100F1000D1F814140914A182A168D1F81414091489
:100F2000E18281070BD5616801F2144189690914D6
:100F30002183A16801F21441896909146183410781
:100F40000BD5616801F21441896809142184A168F4
:100F500001F2144189680914618401070BD56168A5
:100F600001F21441096A0914A183A16801F2144134
:100F7000096A0914E183C00616D5606800F21440BE
:100F800001690914A182A16801F214410A691214CD
:100F9000E282806A00142083886A00146083002043
:100FA00020846084A083E083322084F8240084F8C5
:100FB000250084F8260084F8270084F8280084F8A7
:100FC000290000252646B6F98E70A08AB842ACBF2B
:100FD000012200222068294600F032FAE08AB84255
:100FE000ACBF012200222068294600F03FFA208B86
:100FF000B842A8BF84F82450608BB842A8BF84F8D8
:101000002550A08BB842A8BF84F82650E08BB84288
:10101000A8BF84F82750208CB842A8BF84F8285075
:10102000608CB842A8BF84F829506D1CB61C322DC4
:10103000C9DB94F824102068012200F001FA94F82A
:1010400025102068012200F011FA94F8261020687B
:10105000012200F0F5F994F827102068012200F031
:1010600005FA94F828102068012200F0E9F994F8B4
:1010700029102068012200F0F9F9206800F0DDF95C
:1010800000206074A074012084F8F400A748007860
:1010900018B12046BDE8F24000E0F1BD10B5A4490A
:1010A0000A6804460020120458BF01200968490458
:1010B00058BF40F00200A17B814209D0A0730428F0
:1010C00006DAE17B884203D0E0739748E17B91E048
:1010D00010BD38B504463221206800F0DDF92068E3
:1010E000322100F0EAF9206800F0A7F9206840F208
:1010F000FF7100F0F2F9206800F09FF94FF496704C
:10110000FFF7ECFD20684FF4806100F0E6F92068FD
:1011100000F093F932252068294600F0BDF92068D7
:10112000294600F0CAF9206800F087F91420FFF77B
:10113000D5FD6D1EEFD1B4F8F210206800F0CDF9A6
:101140002068BDE8324000F078B93229BCBF00EB1E
:101150004100428570472DE9F043B0F98C100FF241
:1011600034280FF210250FF2EC160FF2C8193222B4
:1011700042F2107341F6417CB0F92A400C1B1FFA71
:1011800084FEE645A8BF4FF0000E1CDA4FEADE07EA
:1011900007F01E070EF00F0439F81440BF5B7C43C4
:1011A0004FEADE1707F01E07240C7F5B7C434FEAF3
:1011B000DE2707F00207240C37F808707C43240C64
:1011C0005C434FEA144EA0F88EE0801C521ED3D12F
:1011D000BDE8F08300EB4100B0F92A00704710B57C
:1011E0000446042905DAE07B814202D04E48E173CF
:1011F00000E010BD4068FFF782FB2046BDE81040CC
:1012000020E0017400218182C18201834183018435
:1012100041848183C183704710B504466068FFF73D
:10122000BAF8A068BDE81040FFF7B5B810B504469D
:10123000A4F8F210206800F050F92068BDE81040D2
:1012400000F0FBB82DE9F0410446E07BFFF720F900
:10125000354DE17B286800F0ADFA0FF23C1800260E
:10126000274638F8022B686806F1110189B2FFF7AA
:1012700082FB7885761CBF1C322EF2DB2046FFF7FE
:101280006AFFE07B0FF27411425C68684321FFF74C
:1012900072FBC1B22046FFF7B4FFE07B0FF2601192
:1012A00031F8102068684721FFF765FB0146A4F874
:1012B000F210206800F011F92068BDE8F04100F05C
:1012C000BCB8F8B50446FFF77AF9174D286800F066
:1012D00097FA002627467A8D686806F1110189B2CF
:1012E000FFF752FB761CBF1C322EF4DB227C6868B1
:1012F0004321FFF749FBB4F8F22068684721FFF764
:1013000043FB6868BDE8F240FFF74DBB10B50446EB
:1013100005484068FFF75FFB2046BDE8104091E7B5
:101320000000000004100140640000209400002030
:1013300008100140FFFFB4FF68FF1DFFD2FE87FECB
:101340003CFEF1FDA6FD5BFD11FDC6FC7CFC31FC05
:10135000E7FB9DFBFFFF53FBBDF63CF2D0ED79E9C7
:1013600036E507E1EBDCE3D8EED40BD13ACD7BC90F
:10137000CEC531C2FFFFA6BEFB8DBD69BF4EA53AEB
:10138000AD2B872039180A126F0D010A74078D05DD
:1013900022041403FFFF4B0254D9B8F280F348F43F
:1013A00010F5D8F5A0F668F730F8F8F8C0F988FA23
:1013B00050FB18FC7CFCE0FC44FDA8FD0CFE3EFE4E
:1013C00070FEA2FED4FE06FF38FF6AFF9CFFB5FF49
:1013D000CEFFE7FF0000190032004B0064007D00E3
:1013E0009600AF00C800FA002C015E019001F401E4
:1013F0005802BC0220038403E8034C040305010BDC
:10140000920492049204920410B504460E2100F056
:1014100029FA20460E21FF224271401C491EFBD1B1
:10142000204600F05AF8611D204600F04AFA0121DA
:10143000204600F061FA204610BD411D00F041BA7F
:10144000322912DA0FF2C40313F811C003EB410181
:101450006044497843794FF0010C0CFA01F1002AFD
:1014600014BF23EA0101194341717047322912DA8E
:101470000FF2FC0313F811C003EB410160444978FB
:1014800043794FF0010C0CFA01F1002A14BF23EA52
:10149000010119434171704770B504460D4600269D
:1014A000B5429241D243D20F31462046FFF7C8FFE2
:1014B000761CF6B2322EF3DB70BD70B504460D46D5
:1014C0000026B542ACBF01220022F1B22046FFF750
:1014D000CDFF761C322EF4DB70BDF0B481F4806158
:1014E0000FF2F0020B23147855782418012766793F
:1014F00007FA05F5CF074CBF26EA0505354349082D
:10150000921C65715B1EEED1F0BC704700020001B9
:1015100001000103010201010200020302020201B3
:101520000300030303020301040004030402040193
:101530000500050305020501060006030602060173
:101540000700070307020701080008030802080153
:1015500009000903090209010A000A030A020A0133
:101560000B000B030B020B010C000C030C020C0113
:101570000007000601040105010701060204020537
:101580000207020603040305030703060404040517
:1015900004070406050405050507050606040605F7
:1015A00006070606070407050707070608040805D7
:1015B0000807080609040905090709060A040A05B7
:1015C0000A070A060B040B050B070B060C040C0597
:1015D0000C070C060005000400030D030D040D05A7
:1015E0000D060D070D020D010D00000010B504469B
:1015F0000020E07120720021204600F088F820468B
:1016000010BD10B50446201D00F08AF9601D00F0E1
:101610009DF9204600F066F884484FF400410161CE
:1016200001680901090941F0005101604FF480414E
:101630000161016821F0706141F00071016010BD2D
:1016400010B50446201D00F06BF9601D00F07EF916
:10165000204600F047F8764C10202060022000F071
:101660008BF9202020600220BDE8104000F08EB9E8
:1016700010B5044600F036F8201D00F091F9601D09
:1016800000F0A2F925E010B504466A48016841F46B
:10169000803101600021684801854FF40042FF213C
:1016A00081850021818646F668010183112101842C
:1016B0000121818261490A8001210180604801681D
:1016C00041F001010160092000F092F9092000F0C9
:1016D00099F9E179204600F037F8217A2046BDE8F3
:1016E00010404CE080B55448002101840022534949
:1016F0000A8002804F48016821F480310160002097
:1017000000F076F9BDE80240002000F07BB938B562
:1017100004460D46A079A84215D045B1022D0ED041
:1017200009D3032D04BF2046FFF7ADFF0AE0204692
:10173000FFF767FF06E02046FFF782FF02E0204642
:10174000FFF796FFA57131BD6529A8BF6421C1715E
:101750006422C1EB012191FBF2F18279022A08D1C6
:101760000A0192B2B2F5805FA8BF40F6FF72354B16
:101770001A608079032804BF3348018070476529C7
:10178000A8BF642101726422C1EB012191FBF2F137
:101790008279022A08D10A0192B2B2F5805FA8BF0D
:1017A00040F6FF72294B1A608079032804BF28484D
:1017B0000180704770B504460D460FF29C00254E1F
:1017C0002A5C30684421FFF7D6F8C1B22046FFF703
:1017D0009EFF0FF288002A5C30684521FFF7CBF8A6
:1017E000C1B22046FFF7B0FF0FF274002A5C3068E8
:1017F0004621FFF7C0F8C1B22046BDE87040BEE701
:1018000038B50446134DA27928684421FFF7BCF887
:10181000E27928684521FFF7B7F8227A2868BDE801
:1018200038404621FFF7B0B800000000040C01402A
:10183000100801401810024000400140444001409F
:101840001C000140147400403840014008740040FE
:1018500034400140680000200101010164646464B7
:101860006464646401712848016821F4704141F4A2
:1018700030410160016821F4700141F430010160E0
:1018800040210161016821F0706141F04071016007
:101890008021016101680901090941F0C04101602D
:1018A0001A48016841F0007141F0010101601848D7
:1018B000016841F4805101604CF2473115480180C4
:1018C000704770B4154A144C40235360002305E060
:1018D0005D5C2688B607FCD5A5805B1C0579DBB26C
:1018E000AB42F5D320888007FCD520880006FCD4C5
:1018F0004020106070BC70470848002907BF802155
:101900000160802141607047000C014004000140EB
:10191000181002400030014008300140100C014016
:1019200080B5002000F028F8064801684908490001
:1019300001600068C00304D40348016821F000512D
:10194000016001BD007400401C10024080B5002001
:1019500000F01CF80648016821F48031016000683D
:10196000C00704D40348016821F00051016001BDA3
:10197000007400401C10024003490A6822F47022DF
:1019800042EA0040086070470008014003490A68C5
:1019900022F4700242EA00500860704700080140DB
:1019A00080B50020FFF7E8FF0548016841F00051CD
:1019B00001600448016841F00101016001BD00BF00
:1019C0001C1002400074004080B50020FFF7DEFFCD
:1019D0000548016841F0005101600448016841F484
:1019E0008031016001BD00BF1C1002400074004046
:1019F00003490A681201120942EA00700860704740
:101A0000040C014003490A6822F0706242EA006057
:101A100008607047040C014010B504462C20FEF706
:101A200071FE20B180224FF4E13100F027FA6060AE
:101A3000002020700120FEF765FEDFF8E813086043
:101A4000204610BD70B50446207818B9606800F0D3
:101A5000EFFA20702078002800F0E281401E132861
:101A600000F2D481DFE810F0140016002700D20144
:101A7000D20133003D0045004F005700A000A600F2
:101A8000FA005C016E018001A001BC01C201C80125
:101A90000121BCE1606800F0FDFA0546012DC0F2AD
:101AA000B981606800F0F8FA0146606800F008FB50
:101AB0006D1EF6D1AEE10FF2B8352878002800F09F
:101AC000A98115F8011B606800F0FAFAF5E7606873
:101AD00000F0E2FA0146D4480068FFF780FB0021DD
:101AE00095E16068002100F0EBFACF480068C17B07
:101AF0008DE1606800F0D0FA0146CB480068FFF73E
:101B000080FB002183E16068002100F0D9FAC6481B
:101B10000068017C7BE1C44D286890F8F41000292E
:101B200000F07E81067C6068002100F0C9FAF007B1
:101B30000BD52868B0F91410606800F0D0FA286856
:101B4000B0F91610606800F0CAFAB0070BD5286823
:101B5000B0F91810606800F0C2FA2868B0F91A10DD
:101B6000606800F0BCFA70070BD52868B0F9201047
:101B7000606800F0B4FA2868B0F92210606800F0DC
:101B8000AEFA30070BD52868B0F91C10606800F079
:101B9000A6FA2868B0F91E10606800F0A0FA28685C
:101BA000002180F8F41035E19F480068FFF734FB0E
:101BB00000212CE1606800F075FA9C49088060689B
:101BC00000F070FA9A490880606800F06BFA994951
:101BD0000880606800F066FA97490880606800F045
:101BE00061FA96490880606800F05CFA94490880C0
:101BF000606800F057FA93490880606800F052FA74
:101C000091490880606800F04DFA9049088060684A
:101C100000F048FA8E490880606800F043FA8D4968
:101C20000880606800F03EFA8B490880606800F028
:101C300039FA8A490880606800F034FA88490880D7
:101C4000606800F02FFA87490880606800F02AFA7F
:101C500085490880FEF7A5FB0021D8E000216068D7
:101C600000F02EFA7148B0F90010606800F037FA01
:101C70006F48B0F90010606800F031FA6D48B0F9B3
:101C80000010606800F02BFA6B48B0F90010606833
:101C900000F025FA6948B0F90010606800F01FFAFA
:101CA0006748B0F90010606800F019FA6548B0F9AB
:101CB0000010606800F013FA6348B0F90010606823
:101CC00000F00DFA6148B0F90010606800F007FA02
:101CD0005F48B0F90010606800F001FA5D48B0F9A3
:101CE0000010606800F0FBF95B48B0F90010606814
:101CF00000F0F5F95948B0F90010606800F0EFF90C
:101D00005748B0F90010606800F0E9F95548B0F99B
:101D10000010606800F0E3F95348B0F900105BE090
:101D2000414D0026606800F0BDF902462868F1B216
:101D3000FFF70BFA761C322EF4DB2868FFF70BFA5C
:101D4000002164E06068002100F0BAF90026364DF9
:101D50002868F1B2FFF73EFA0146606800F0BFF96B
:101D6000761C322EF4DB55E0606800F095F93F4DAB
:101D700001462868FFF7CBFC606800F08DF901464A
:101D80002868FFF7E1FC606800F086F901462868E2
:101D9000FFF7F5FC606800F085F981B22248006821
:101DA000FFF744FA002132E06068002100F088F972
:101DB0002E4D28688179606800F082F92868C17921
:101DC000606800F07DF92868017A606800F078F9B1
:101DD00015480068B0F9F210606800F080F919E069
:101DE00011480068FFF76DFA002110E00E48006806
:101DF000FFF78CFA00210AE06068002100F060F92A
:101E000008480168606800F07BF903E0042160681D
:101E100000F056F92178606800F07FF8002020700B
:101E200070BD00008400002074000020000000202D
:101E3000020000200400002006000020080000200E
:101E40000C0000200E0000201200002014000020D2
:101E500016000020180000201A0000201C0000209E
:101E60002000002022000020260000206400002026
:101E70004D657465722056322E30300038B50D46EF
:101E80000446114600F06AF82B4804604FF40071D4
:101E90002A48C160016821F0F00141F0A001016011
:101EA0004FF48061C160016821F4706141F4006108
:101EB00001602348016841F48041016021482249C2
:101EC000B1FBF5F1018042F22C018180F0211F4825
:101ED000017020211E480160204632BD10B51D4C06
:101EE00082B02088800605D5A18813480068C9B251
:101EF00000F04AF8208800060ED50F48006800A9B7
:101F000000F047F918B19DF80000A08013BD4FF60E
:101F10007F71A0890840A08113BD80B500AA00F0A0
:101F200003F90D489DF800100180018941F08001FE
:101F3000018101BD0000000088000020040801406C
:101F4000181002400838014000366E0125E400E018
:101F500004E100E0003801400438014038B5FFE7F3
:101F600004460D1D84F82810284600F0BDF92061B4
:101F7000284600F0B9F96062002020700620207524
:101F800000206070204632BD4278062A3CD0C0292D
:101F900005D10121417001694160002102E0DB2986
:101FA00002D101218170704790F802C0BCF1000F8E
:101FB00008D0DD2908BFDB2102D0DC2914D1C021E3
:101FC00000238370012A06D01ED3032A1DD014D308
:101FD000042A27D07047022242700A0607D50278E9
:101FE00001F07F0191420AD0002141707047002327
:101FF0004268521C426002F8013D0322427042686E
:10200000521C426002F8011D70470422427090F891
:1020100028208A4298BF114602698A1802F20302F8
:102020008260ECE7426883689A42E8D10622E5E7DD
:1020300042780021062A2BD181680269891AC91EBB
:10204000017382210269426013785BB9531C4360BB
:1020500008E00CF1010343605B1E1B7859400FF24E
:102060008813C95C8368D0F804C06345F1D2521C60
:10207000426000290CBF11780121002280F8202045
:10208000026902F203024260426A02F203028261C2
:1020900008467047007B70474168491C416011F851
:1020A000010D70474168491C4160491E426809782A
:1020B000521C426012F8010D41EA002000B2704744
:1020C00000F11802137CD2F80CC080696344DB1C59
:1020D000984203D2401C106000F8011D704700F1C7
:1020E000180393F810C0DB68826963449B1C9A4212
:1020F00005D202F8011B531C83610812107070474F
:1021000000F1180393F810C0DB68826963449A42B7
:1021100009D211700B1253700B0C9370D21C531C0C
:102120008361080E1070704730B48369C361446ADC
:102130001B1BDB1E80F82030631C8361057845F093
:1021400080052570197090F8201059708221436A1B
:102150008361047854B95B1C836107E05B1C836175
:102160005B1E1B7859400FF28003C95C8369C46908
:10217000A342F3D319700378416A03B9491C816102
:1021800000214175417004210175C020107030BCE0
:102190007047027D042A22D18269521C8261521E3C
:1021A00012780A70C02A18BFDB2A10D1437D3BB9D0
:1021B000DB220A70012141758169491E816106E0B7
:1021C000C02A0CBFDC22DD220A7000214175C169E2
:1021D000826991423CBF05210175012070470621AB
:1021E0000175002070470000005EBCE2613FDD83A6
:1021F000C29C7E20A3FD1F419DC3217FFCA2401EE7
:102200005F01E3BD3E6082DC237D9FC1421CFEA0D6
:10221000E1BF5D0380DE3C62BEE0025CDF81633DC6
:102220007C22C09E1D43A1FF4618FAA427799BC5B6
:1022300084DA3866E5BB5907DB856739BAE40658A6
:102240001947A5FB7826C49A653BD987045AB8E696
:10225000A7F91B45C6987A24F8A6441A99C7257B86
:102260003A6486D85B05E7B98CD2306EEDB3510F76
:102270004E10F2AC2F7193CD114FADF3702ECC9266
:10228000D38D6F31B2EC0E50AFF1134DCE90722C56
:102290006D33D18F0C52B0EE326C8ED0530DEFB146
:1022A000F0AE4C1291CF2D73CA947628ABF5174936
:1022B0000856B4EA6937D58B5709EBB536688AD426
:1022C00095CB2977F4AA4816E9B7550B88D6346A16
:1022D0002B7597C94A14F6A8742AC896154BA9F706
:1022E000B6E80A54D7896B35FEF70CBA10B5FEF77D
:1022F000D9FCF820FEF706FA08B1FEF7A1FD094C5B
:1023000020600820FEF7FEF908B1FFF785FB60604A
:10231000FEF7DCFC2068FEF7E2FD6068FFF792FB49
:10232000F6E700BF7400002010B507497944183162
:10233000064C7C44163404E00A68081D511888478E
:102340000146A142F8D110BD0800000018000000AD
:10235000E7E9FFFF980000000000002000000000F7
:102360000500000010B50446044979440E310448C4
:1023700078440C3000F006F8204610BD340100000F
:102380002C01000038B504460D46AC4205D020684B
:1023900020188047241DAC42F9D131BD00F009F866
:1023A000002801D0FFF7C0FF0020FFF79FFF00F0DB
:1023B00002F80120704700F001B8000007463846D7
:1023C000FEF734FDFBE70000014880470148004765
:1023D000310C0008D9230008C046C046C046C0469C
:1023E000FFF7DCFFFFF7FEBFFFF7FEBFFFF7FEBF03
:1023F000FFF7FEBFFFF7FEBFFFF7FEBFFFF7FEBF11
:10240000FFF7FEBFFEF75DBCFFF7FEBFFFF7FEBFA5
:10241000FFF7FEBFFFF7FEBFFFF7FEBFFFF7FEBFF0
:10242000FFF7FEBFFFF7FEBFFFF7FEBFFFF7FEBFE0
:10243000FFF7FEBFFFF7FEBFFFF7FEBFFFF7FEBFD0
:10244000FFF7FEBFFFF7FEBFFFF7FEBFFFF7FEBFC0
:10245000FFF7FEBFFFF7FEBFFFF7FEBFFFF7FEBFB0
:10246000FFF7FEBFFFF7FEBFFFF7FEBFFFF7FEBFA0
:10247000FFF7FEBFFFF7FEBFFFF7FEBFFFF7FEBF90
:10248000FFF7FEBFFFF7FEBFFFF7FEBFFFF726BD5A
:10249000FFF7FEBFFFF7FEBFFFF7FEBFFFF7FEBF70
:1024A000FFF7FEBFFFF7FEBFFFF7FEBFE5E5FFFF4B
:04000005080023D9F3
:00000001FF
