:020000040800F2
:10000000C8040020F5180008111900081519000887
:10001000191900081D190008211900080000000026
:10002000000000000000000000000000251900088A
:1000300029190008000000002D1900085F0B0008B6
:1000400035190008391900083D1900084119000840
:1000500045190008491900084D19000851190008F0
:1000600055190008591900085D19000861190008A0
:1000700065190008691900086D1900087119000850
:1000800075190008791900087D19000800000000A2
:1000900000000000000000000000000081190008BE
:1000A00085190008891900088D19000891190008A0
:1000B00095190008991900089D190008A119000850
:1000C000A5190008A9190008AD190008B119000800
:1000D000B519000845130008BD190008C11900082A
:1000E000C5190008C9190008CD1900080000000052
:1000F0000000000000000000000000000000000000
:1001000000000000000000000000000000000000EF
:100110000000000000000000D1190008D5190008F7
:1001200038B504460D46012000F03AFA20B104F13A
:100130000802294600F046FA20604021DFF84C040E
:100140004161016821F0706141F040710160601D02
:1001500000F0F4FAA01D00F007FBE5710020C4F8E0
:100160000804A4F80C04A4F80E04C4F8140440F223
:100170002321DFF81C04416000220021C4F8181478
:1001800000234FF480318160C4F81C2440F6B4721F
:100190004261C4F820348261A4F82434072202802A
:1001A000A4F8263440F2EE2242800161ED22DFF80D
:1001B000E413C26041628162204632BDF8B5044654
:1001C000206800F085FA002800F1DC80DFF8C81311
:1001D00040220A6004EB400000F108024FF48073F3
:1001E0004FF6E975B4F80864B4F90E7432F9020BED
:1001F00005FB0766C4F80864B4F80C74C71B07EB6A
:100200002646A4F80E64A4F80C0436B2002E48BFAB
:100210007642A4F81064B4F91074D4F81464A7EB0F
:1002200026400FFA80FCDFF86803BCF1010F05DB04
:10023000D0F804E00EFB0C66C4F81464D4F818641B
:10024000A7EB26473FB2012F05DBD0F808C00CFB17
:100250000766C4F818645B1EC4D1D4F81434426A2B
:100260001D14ADB26A434FEA224CD4F81C24ACEB07
:10027000224636B2002E07D4476907FB0622C4F88F
:100280001C240022A4F824244EF22842D4F81C6432
:1002900002FB0CFC37144FEA2C4C1FFA8CFCBFB24B
:1002A000BC4505D2D0F80CC00CFB1533C4F814348F
:1002B000B4F824340588AB4203D25B1CA4F8243480
:1002C00004E0C36903FB1763C4F81C34D4F8183482
:1002D000866AD4F82074D0F818C01D14ADB26E43ED
:1002E0003614BCF5803F06DBD4F81CC4674510DA31
:1002F000C4F820C40AE0A6EB274E0FFA8EFEBEF12A
:10030000000F06D40CFB0E77C4F820740027A4F865
:1003100026747243D4F820744FEA274C121492B218
:100320001FFA8CF6B24204D2026902FB1532C4F8FD
:100330001824B4F8262443889A4203D2501CA4F807
:10034000260404E0006A00FB1670C4F82004E0797B
:10035000A0B9D4F81C04001480B2B0F5805FA8BF27
:1003600040F6FF708D4A1060D4F82004001480B26B
:10037000B0F5805FA8BF40F6FF70D06040204860B5
:100380000120F2BD0020F2BDD0F81C04001470471B
:10039000D0F82004001470477D49401C4860704725
:1003A0007B49401C886070477949401CC860704791
:1003B0007749401C086170477549401C4861704787
:1003C0007349401C886170477149401CC86170477F
:1003D0006F49401C086270476D49000248627047CF
:1003E0006B49000288627047694908807047684914
:1003F000488070476648406801E065488068401E54
:1004000080B270476248C068F9E761480069F6E762
:100410005F484069F3E75E488069F0E75C48C0697F
:10042000EDE75B48006AEAE75948406A01E058484E
:10043000806AC11100EB11600002000C7047544843
:100440000088704752484088704770B5504C40F261
:100450002221012000F0D2F9401C60604FF6FF75A8
:100460002946022000F0CAF9401CA060EC210320BC
:1004700000F0C4F9401CE0602946042000F0BEF9F9
:10048000401C206140F6B3763146052000F0B6F9F5
:10049000401C60613146062000F0B0F9401CA061AC
:1004A000EC21072000F0AAF9401CE0612946082051
:1004B00000F0A4F9401C206240F2FF4529460920C3
:1004C00000F09CF90002606229460A2000F096F9CB
:1004D0000002A06207210B2000F090F9208040F27A
:1004E000EE210C2000F08AF9608070BD10B5284C18
:1004F0006068411E89B2012000F0ADF9A068411E7C
:1005000089B2022000F0A7F9E068411E89B20320F9
:1005100000F0A1F92069411E89B2042000F09BF986
:100520006069411E89B2052000F095F9A069411E5D
:1005300089B2062000F08FF9E069411E89B20720D8
:1005400000F089F9206A411E89B2082000F083F981
:10055000606AC11100EB11600102090C092000F072
:100560007AF9A06AC11100EB11600102090C0A209E
:1005700000F071F921880B2000F06DF96188BDE869
:1005800010400C2000F067B9000000000008014096
:100590006400002000FF04001008014008740040BF
:1005A00010B5044601E000F067F9204600F066F956
:1005B00028B9034800680100F5D08047F5E710BD71
:1005C000B8000020F0B4564B1C6844F480441C6012
:1005D0005C6944F400745C61524C79B9524E3568E0
:1005E0002D092D013560E56845F00205E560656B74
:1005F00045F4801565634FF40065256101290FD12D
:10060000494E376827F0F0073760E66846F0100675
:10061000E660666B46F4841666634FF400666661B6
:100620004FF4807626604FF6FE754AF2010666604A
:100630009E6946F001069E614FF0804637882F4044
:10064000378000273785F927B7852027B780676867
:1006500047F00807676067683F07FCD4676847F0A2
:100660000407676067687F07FCD4A1B91C692F4F36
:1006700044F001041C612E4CA760E2604FF4007747
:10068000676042F2A1572760B48D6408B486B489CC
:1006900044F40074B481012913D11C6944F00104AD
:1006A0001C61244B224C236362634FF40072E262AC
:1006B00042F2A152A262B28D3287B28942F48062C4
:1006C000B281328842F0010232800170F0BC704782
:1006D000007860B918480168490348BF4FF4802189
:1006E0000DD40168890316D54FF400310FE00128BD
:1006F00011D111480168490104D54FF08061416072
:10070000002070470168890105D54FF000714160F4
:100710004FF4807070474FF0FF30704700000000CA
:100720000410024004240140000801403C24014020
:100730005800024040240140000002400748016880
:1007400021F4702101600648016841F00051016008
:100750000448016841F0030101607047000801404E
:100760001C100240007400400748016821F4700129
:1007700001600648016841F00051016004480168C9
:1007800041F4403101607047000801401C100240F4
:100790000074004038B5044600F0C9F8354D01201A
:1007A000A8700021002000F029F84BF6DA61884299
:1007B0000CBF01200020A870204632BD38B5410092
:1007C0002C4C2170800900F00E006070192000F0A0
:1007D000DAF900F0E3F8607840F0A00000F0E6F805
:1007E000050007D100F0D4F90028F2D000F041F95B
:1007F000284632BD207800F0D9F8F9E738B51D4D0C
:100800000C46A978A9B1FFF7D9FF90B100F031F9F2
:1008100000F0C4F8687840F0A10000F0C7F80120AB
:1008200000F0F8F80446002000F0F4F844EA002054
:1008300032BD204632BD10B50C46FFF7BFFF48B1B0
:10084000E0B200F0B3F8200A00F0B0F8BDE81040C4
:1008500000F00FB910BD38B50D4604460021FFF772
:10086000CDFFA84204D029462046BDE83440E2E747
:1008700031BD0000C000002000F0A8B970B50546E9
:1008800005F10F00C408E400C046C046A54232D2BC
:10089000082C04D2082402E0083000F0B1F9224804
:1008A000026811000CD1011D0A6802B31368A3424B
:1008B00038BF111DF8D310E01D68A5420DD2191DD7
:1008C0000B68002BF8D11268011D00E0191D0B68A0
:1008D00093420CD01D68A542F8D361B10D682A6817
:1008E000A2F10803A3420AD26A680A600FE000F08E
:1008F000C7F90028D0D1C046C046002070BD63199A
:100900000B60121B6E685E600B681A602C600968D1
:1009100000291DBF4A68002A091D00210160C04648
:10092000C04605F1080070BDAC000020704780B5DE
:100930005F484FF48071C16001680909090141F005
:10094000060101604FF40071C160016821F0F001FF
:1009500041F0600101605748016841F400310160D5
:100960000021554801854FF6FF71818501210180E5
:1009700000F003F8BDE801407BE070B509244FF4B6
:1009800080754E4E3068800507D4F56000F089F818
:10099000B56000F086F8641EF4D170BD80B500210A
:1009A000474800F083F9BDE801407AE02DE9F041C5
:1009B000044608254FF48078404F424EC7F80C801B
:1009C00020064CBF01210021301D00F06FF96400AA
:1009D00000F067F8C7F8088000F063F86D1EEDD1ED
:1009E0000021304600F06CF90121301D00F05EF965
:1009F00000F057F80121304600F062F900F051F89C
:100A00003C6800F04EF8600A00F0010080F0010040
:100A1000BDE8F0812DE9F84381460826274F4FF4C1
:100A200000784FF48074FC60C7F8088000F039F853
:100A3000BC6000F036F86D0638682D0E800548BFA2
:100A400045F00105761EEED11E4E0021304600F025
:100A500037F989F00101301D00F028F900F021F884
:100A60000121304600F02CF900F01BF82846BDE8C3
:100A7000F28310B5134C0021204600F021F900212B
:100A8000201D00F013F900F00CF80121204600F0C1
:100A900017F900F006F80121201D00F007F9BDE864
:100AA000104009480021018001886629FCDB70475D
:100AB000040C01401810024000440140080C0140A1
:100AC000A00000209C000020244401403548C1695A
:100AD00041F08051C161F02233490A604A685207EF
:100AE000FCD4416841F480114160016841F080719B
:100AF000016001688901FCD541688908890041606D
:100B0000416841F002014160416801F00C0108298F
:100B1000FAD10022816941F03D0181610021234821
:100B2000C1602349CA604FF08832026042600A60A7
:100B30004A602048026042601F480260426070477D
:100B40001E480021016045F6BF511D484160F0225A
:100B50001C490A7000218160072101607047174815
:100B60000168491C01607047154817490068000C6E
:100B700000F001000870704710490A680B689B1A62
:100B80008342FBD370470D490A684A60886070470A
:100B90000A48016842688068891A81428041C043DE
:100BA000C00F704700100240007000400008014074
:100BB000000C014000100140001401409000002092
:100BC00010E000E023ED00E0C3000020012000F071
:100BD00081B810B450F8041B81B102681218001DCE
:100BE00050F8043BDC0744BFA9F10104E31852F8B4
:100BF000044B43F8044B091FF9D1EBE710BC7047D5
:100C000000B9704710B5A0F108042068082833D354
:100C100010F0070F30D1C046C0461848416809B1EE
:100C20008C4203D26160446017E019464B680BB1F7
:100C3000A342FAD30A6853189C421BD3A34204D19F
:100C400023689A180A600C4607E04A681AB12368BC
:100C50001B199A420ED362604C60616851B12268E0
:100C600013198B4206D100230360086880182060A6
:100C700048686060C046C04610BD0000AC0000205F
:100C80000749086808B1002070470648C008C0003E
:100C900008600549C908C900091A0160704700BF0A
:100CA000BC000020CF040020C714002003484FF4EC
:100CB000007209B10260704742607047100C014039
:100CC00003484FF4807209B1026070474260704778
:100CD000100C014080B5C046C046024A11001820E1
:100CE000ABBEFBE72600020038B5FFE704460D1D4A
:100CF00084F82810284600F0A9F92061284600F061
:100D0000A5F9606200202070062020750020607028
:100D1000204632BD4278062A3CD0C02905D10121A7
:100D2000417001694160002102E0DB2902D101210B
:100D30008170704790F802C0BCF1000F08D0DD2927
:100D400008BFDB2102D0DC2914D1C021002383702D
:100D5000012A06D01ED3032A1DD014D3042A27D07B
:100D60007047022242700A0607D5027801F07F011F
:100D700091420AD000214170704700234268521C02
:100D8000426002F8013D032242704268521C4260F8
:100D900002F8011D70470422427090F828208A4210
:100DA00098BF114602698A1802F203028260ECE7DA
:100DB000426883689A42E8D10622E5E7427800213A
:100DC000062A2BD181680269891AC91E0173822102
:100DD0000269426013785BB9531C436008E00CF170
:100DE000010343605B1E1B7859400FF26013C95C1E
:100DF0008368D0F804C06345F1D2521C42600029D8
:100E00000CBF11780121002280F82020026902F233
:100E100003024260426A02F203028261084670479E
:100E2000007B70474168491C416011F8010D704713
:100E30004168491C4160491E42680978521C426061
:100E400012F8010D41EA002000B2704700F11802CB
:100E5000137CD2F80CC080696344DB1C984203D237
:100E6000401C106000F8011D704700F1180393F852
:100E700010C0DB68826963449B1C9A4205D202F869
:100E8000011B531C836108121070704730B48369D2
:100E9000C361446A1B1BDB1E80F82030631C836126
:100EA000057845F080052570197090F8201059706C
:100EB0008221436A8361047854B95B1C836107E033
:100EC0005B1C83615B1E1B7859400FF28003C95C79
:100ED0008369C469A342F3D319700378416A03B9E3
:100EE000491C816100214175417004210175C020B8
:100EF000107030BC7047027D042A22D18269521CD6
:100F00008261521E12780A70C02A18BFDB2A10D1E3
:100F1000437D3BB9DB220A70012141758169491E7D
:100F2000816106E0C02A0CBFDC22DD220A700021AC
:100F30004175C169826991423CBF0521017501205B
:100F4000704706210175002070470000005EBCE27A
:100F5000613FDD83C29C7E20A3FD1F419DC3217F95
:100F6000FCA2401E5F01E3BD3E6082DC237D9FC189
:100F7000421CFEA0E1BF5D0380DE3C62BEE0025C7D
:100F8000DF81633D7C22C09E1D43A1FF4618FAA469
:100F900027799BC584DA3866E5BB5907DB85673955
:100FA000BAE406581947A5FB7826C49A653BD98749
:100FB000045AB8E6A7F91B45C6987A24F8A6441A3D
:100FC00099C7257B3A6486D85B05E7B98CD2306E29
:100FD000EDB3510F4E10F2AC2F7193CD114FADF315
:100FE000702ECC92D38D6F31B2EC0E50AFF1134D09
:100FF000CE90722C6D33D18F0C52B0EE326C8ED0FD
:10100000530DEFB1F0AE4C1291CF2D73CA947628E8
:10101000ABF517490856B4EA6937D58B5709EBB5D4
:1010200036688AD495CB2977F4AA4816E9B7550BC8
:1010300088D6346A2B7597C94A14F6A8742AC896BC
:10104000154BA9F7B6E80A54D7896B35FFF7A8BA4C
:1010500010B504462C20FFF7A3FA20B180224FF4EC
:10106000E13100F03FF9606000202070204610BDA3
:101070007CB50446207818B96068FFF79FFE2070A1
:101080002078002800F02781401E0E2800F21981E8
:10109000DFE810F00F001100220017011701FD001A
:1010A000FD003100FD00FD005900A300F000FF002D
:1010B0001101012106E16068FFF7B2FE0546012D2E
:1010C000C0F203816068FFF7ADFE01466068FFF77C
:1010D000BDFE6D1EF6D1F8E00FF200210CC900A88C
:1010E00000AD0CC029786068FFF7B0FE15F8010F5D
:1010F0000028F7D1E9E0784D286890F82000002812
:1011000000F0E98060680021FFF7A0FE2868B0F9D0
:1011100018106068FFF7A9FE2868B0F91A10606817
:10112000FFF7A3FE2868B0F91C106068FFF79DFE6A
:101130002868B0F91E106068FFF797FE2868002144
:1011400080F82010C1E06068FFF772FE80B2FFF700
:1011500023F96068FFF76CFE80B2FFF721F9606841
:10116000FFF766FE80B2FFF71FF96068FFF760FEC9
:1011700080B2FFF71DF96068FFF75AFE80B2FFF7F3
:101180001BF96068FFF754FE80B2FFF719F9606839
:10119000FFF74EFE80B2FFF717F96068FFF748FED1
:1011A00080B2FFF715F96068FFF742FE80B2FFF7E3
:1011B00013F96068FFF73CFE80B2FFF711F9606831
:1011C000FFF736FE80B2FFF70FF96068FFF730FED9
:1011D00080B2FFF70CF9002174E000216068FFF78E
:1011E00035FEFFF707F901B26068FFF73EFEFFF733
:1011F00004F901B26068FFF738FEFFF703F901B2A6
:101200006068FFF732FEFFF700F901B26068FFF790
:101210002CFEFFF7FDF801B26068FFF726FEFFF72E
:10122000FAF801B26068FFF720FEFFF7F7F801B2A5
:101230006068FFF71AFEFFF7F4F801B26068FFF785
:1012400014FEFFF7F1F801B26068FFF70EFEFFF73A
:10125000EEF801B26068FFF708FEFFF7F0F801B2A0
:101260006068FFF702FEFFF7EDF801B26068FFF774
:10127000FCFD2AE0184D00266068FFF7D9FD024604
:101280002868F1B200F04DF9761C322EF4DB002113
:1012900018E060680021FFF7D9FD00260E4D286890
:1012A000F1B200F044F901466068FFF7DEFD761CFC
:1012B000322EF4DB09E00848006800F04DF9002107
:1012C00000E004216068FFF7C1FD2178606800F04C
:1012D00058F80020207073BDA40000204D6574658F
:1012E0007200000038B50D4604461146FFF7FCFCBD
:1012F0002B4804604FF400712A48C160016821F056
:10130000F00141F0A00101604FF48061C16001680B
:1013100021F4706141F4006101602348016841F4E7
:101320008041016021482249B1FBF5F1018042F280
:101330002C018180F0211F48017020211E4801608E
:10134000204632BD10B51D4C82B02088800605D5E0
:10135000A18813480068C9B2FFF7DCFC20880006AA
:101360000ED50F48006800A9FFF7C5FD18B19DF81C
:101370000000A08013BD4FF67F71A0890840A081B6
:1013800013BD80B500AAFFF781FD0D489DF8001040
:101390000180018941F08001018101BD0000000050
:1013A000B400002004080140181002400838014031
:1013B00000366E0125E400E004E100E00038014061
:1013C0000438014038B504460120FFF7E9F808B1B8
:1013D000FFF7E0F920601220FFF7E2F808B100F013
:1013E000CFF860604FF48560FFF7DAF810B10021A4
:1013F000FEF796FEA0604FF48560FFF7D1F810B1BC
:101400000121FEF78DFEE0603221606800F000F9F6
:101410006068322100F00DF96068012100F019F9CF
:10142000606800F0CAF8C820FFF7A6FB204600F06D
:1014300082F800202074607484F8200032256068EF
:10144000294600F0E5F86068294600F0F2F8606887
:1014500000F0B3F81420FFF78FFB6D1EEFD120468C
:1014600032BD2DE9F8430446A068FEF7A7FE08B197
:1014700001202074E068FEF7A1FE08B1012060742D
:10148000207C00281CBF607C002848D0A068FEF7A4
:101490007BFF2083E068FEF777FF6083A068FEF79C
:1014A00077FFA083E068FEF773FF344EE0830025EA
:1014B000A8460027B6F900001FFA80F9208B48459E
:1014C000ACBF012200226068394600F079F8608BD9
:1014D0004845ACBF012200226068394600F084F81C
:1014E000A08B4845A8BF3D46E08B4845A8BFB846FD
:1014F0007F1CB61C322FDDDB60680122294600F01C
:101500005FF860680122414600F06EF8606800F004
:1015100054F8002020746074012084F82000BDE895
:10152000F1833229BCBF154820F8112070471348B9
:1015300030F91100704738B5FEF787FF00240F4DD2
:10154000298804F10D0080B2FFF758F9641C25F8D2
:10155000020B322CF4DB31BD38B5FEF7C7FF002497
:10156000064D35F8021B04F10D0080B2FFF773F948
:10157000641C322CF5DB31BD0000000000000020AF
:1015800010B5044600F0D2F8204600F00AF8211DFC
:10159000204600F0F9F80121204600F00DF9204620
:1015A00010BD01460E22FF230B71491C521EFBD1B8
:1015B000417C01F0FE0141747047011D00F0E4B868
:1015C0000FF2A00313F811C003EB41016044497806
:1015D00003794FF0010C0CFA01F1002A14BF23EA41
:1015E00001011943017170470FF2DC0313F811C0B8
:1015F00003EB41016044497803794FF0010C0CFA88
:1016000001F1002A14BF23EA010119430171704757
:1016100070B504460D460026B5429241D243D20F22
:1016200031462046FFF7CCFF761CF6B2322EF3DBB4
:1016300070BD70B504460D460026B542ACBF012210
:101640000022F1B22046FFF7CFFF761C322EF4DBEA
:1016500070BD437C002914BF43F0010103F0FE017B
:101660004174704700020001010001030102010101
:10167000020002030202020103000303030203014A
:10168000040004030402040105000503050205012A
:10169000060006030602060107000703070207010A
:1016A00008000803080208010900090309020901EA
:1016B0000A000A030A020A010B000B030B020B01CA
:1016C0000C000C030C020C010007000601040105CC
:1016D00001070106020402050207020603040305CE
:1016E00003070306040404050407040605040505AE
:1016F000050705060604060506070606070407058E
:10170000070707060804080508070806090409056D
:10171000090709060A040A050A070A060B040B054D
:101720000B070B060C040C050C070C062648016879
:1017300021F4704141F430410160016821F47001ED
:1017400041F43001016040210161016821F07061C4
:1017500041F04071016080210161016809010909BE
:1017600041F0C04101601948016841F0007141F049
:10177000010101601648016841F4805101604CF29A
:10178000473114480180704730B41448124B40224E
:1017900042600E220C781D88AD07FCD5491C9C8048
:1017A000521EF7D119888907FCD519880906FCD47F
:1017B0004021016030BC70470848002907BF8021E4
:1017C0000160802141607047000C0140040001402D
:1017D000181002400030014008300140100C014058
:1017E00010B5FFF7ADF92420FEF7DAFE08B1FFF7D8
:1017F000E9FD094C20600820FEF7D2FE08B1FFF792
:1018000027FC6060FFF7B0F92068FFF72AFE6068E8
:10181000FFF72EFCF6E700BFA400002010B5074933
:1018200079441831064C7C44163404E00A68081DDB
:10183000511888470146A142F8D110BD2C00000084
:101840005000000050F8041B61B150F8042BD3077E
:1018500044BFA9F101039A18002342F8043B091F71
:10186000FAD1EFE770470000DDFFFFFF60000000E6
:1018700064000020000000005BF3FFFF6400000034
:101880005C010000000000200000000005000000D6
:1018900010B50446044979440E31044878440C30AC
:1018A00000F006F8204610BD340100002C010000B5
:1018B00038B504460D46AC4205D020682018804754
:1018C000241DAC42F9D131BD00F009F8002801D047
:1018D000FFF7A4FF0020FFF783FF00F002F80120CC
:1018E000704700F001B8000007463846FFF7F2F9EC
:1018F000FBE700000148804701480047CD0A000887
:1019000005190008C046C046C046C046FFF7DCFFC8
:10191000FFF7FEBFFFF7FEBFFFF7FEBFFFF7FEBFFB
:10192000FFF7FEBFFFF7FEBFFFF7FEBFFFF7FEBFEB
:10193000FFF715B9FFF7FEBFFFF7FEBFFFF7FEBFCA
:10194000FFF7FEBFFFF7FEBFFFF7FEBFFFF7FEBFCB
:10195000FFF7FEBFFFF7FEBFFFF7FEBFFFF7FEBFBB
:10196000FFF7FEBFFFF7FEBFFFF7FEBFFFF7FEBFAB
:10197000FFF7FEBFFFF7FEBFFFF7FEBFFFF7FEBF9B
:10198000FFF7FEBFFFF7FEBFFFF7FEBFFFF7FEBF8B
:10199000FFF7FEBFFFF7FEBFFFF7FEBFFFF7FEBF7B
:1019A000FFF7FEBFFFF7FEBFFFF7FEBFFFF7FEBF6B
:1019B000FFF7FEBFFFF7FEBFFFF7C4BCFFF7FEBF98
:1019C000FFF7FEBFFFF7FEBFFFF7FEBFFFF7FEBF4B
:1019D000FFF7FEBFFFF7FEBF55EFFFFF0000380027
:1019E0004600590070008D00B100DF00190162014E
:1019F000BE013202C3027B036204EA04840530069E
:101A0000F2065B07CB074108BE08000943098809B5
:101A1000CF09190A640AB20A020B540BA90B000C75
:101A20005A0CB60C150D770DDC0DAE0E8D0F78101F
:101A300072119313F715A518A71B071FD0221027A3
:0400000508001905D1
:00000001FF
